:1000000000800020131100000D1100000D110000F0
:100010000D1100000D1100000D1100000000000086
:100020000000000000000000000000000D110000B2
:100030000D110000000000000D1100006111000012
:100040000D1100000D1100000D1100000D11000038
:100050000D1100000D1100000D1100000D11000028
:100060000D1100000D1100000D1100000D11000018
:100070000D1100000D1100000D1100000D11000008
:100080000D1100000D1100000D1100000D110000F8
:100090000D1100000D1100000D1100000D110000E8
:1000A0000D1100000D1100000D11000000000000F6
:1000B0000D1100000D1100000D11000000000000E6
:1000C000000000000D1100000D1100000D110000D6
:1000D0000D1100000D1100000D1100000D110000A8
:1000E0000D11000000000000000000000D110000D4
:1000F0000D1100000D1100000D1100000D11000088
:100100000D1100000D1100000D1100000D11000077
:1001100000000000000000000000000000000000DF
:10012000000000000D1100000D1100000D11000075
:100130000D1100000D1100000D1100000D11000047
:1001400000000000000000000000000000000000AF
:100150000D1100000D1100000D1100000D11000027
:10016000000000000000000000000000000000008F
:10017000000000000000000000000000000000007F
:10018000000000000000000000000000000000006F
:10019000000000000000000000000000000000005F
:1001A000000000000000000000000000000000004F
:1001B0000D1100000D1100000D1100000D110000C7
:1001C0000D1100000D1100000D1100000D110000B7
:1001D0000D1100000D1100000D1100000D110000A7
:1001E0000D1100000D1100000D11000000000000B5
:1001F00000000000000000000000000000000000FF
:1002000000000000000000000000000000000000EE
:1002100000000000000000000000000000000000DE
:1002200000000000000000000000000000000000CE
:1002300000000000000000000000000000000000BE
:1002400000000000000000000000000000000000AE
:1002500000000000000000000D1100000D11000062
:100260000D1100000D1100000D11000080B485B0CB
:1002700000AF03460A46FB711346BB71FB79002BA6
:100280001FD1694B1B68FA79012101FA02F211466C
:10029000654A0B4313600123FB60644B644A1A6098
:1002A000644B1B68BA79012101FA02F21146614AD6
:1002B0000B431360604B00221A60604B00221A60EF
:1002C000ADE0FB79012B1FD1574B1B68FA79012157
:1002D00001FA02F21146544A0B4313600123FB60FA
:1002E000574B534A1A60574B1B68BA79012101FAE0
:1002F00002F21146534A0B431360534B00221A601B
:10030000524B00221A608AE0FB79022B1FD1464B28
:100310001B68FA79012101FA02F21146424A0B43A5
:1003200013600123FB604A4B414A1A60494B1B682A
:10033000BA79012101FA02F21146464A0B431360D1
:10034000454B00221A60454B00221A6067E0FB799A
:10035000032B1FD1344B1B68FA79012101FA02F2F9
:100360001146314A0B4313600123FB603C4B304A7A
:100370001A603C4B1B68BA79012101FA02F211465E
:10038000384A0B431360384B00221A60374B002267
:100390001A6044E0FB79042B1FD1234B1B68FA79C8
:1003A000012101FA02F211461F4A0B431360012397
:1003B000FB602F4B1E4A1A602E4B1B68BA79012135
:1003C00001FA02F211462B4A0B4313602A4B00221A
:1003D0001A602A4B00221A6021E0FB79052B1ED1FE
:1003E000114B1B68FA79012101FA02F211460E4AFB
:1003F0000B4313600123FB60214B0D4A1A60214B14
:100400001B68BA79012101FA02F211461D4A0B4319
:1004100013601D4B00221A601C4B00221A6000BFA3
:100420001437BD4680BC704708E60F4020450040A9
:100430004B434F4C24450040204400402845004099
:1004400020550040245500402054004028550040CD
:10045000206500402465004020640040286500407D
:10046000207500402475004020740040287500402D
:1004700020450240244502402044024028450240D5
:100480002055024024550240205402402855024085
:1004900080B483B000AF0346FB710B46BB711346BB
:1004A0007B71FB79002B4CD17B79022B32D0022B54
:1004B0003BDC002B02D0012B16D036E09F4B1B6893
:1004C000BA79012101FA02F2D24311469B4A0B404C
:1004D00013609B4B1B68BA79012101FA02F21146A5
:1004E000974A0B43136021E0944B1B68BA790121B2
:1004F00001FA02F2D2431146904A0B401360914B2D
:100500001B68BA79012101FA02F211468D4A0B43A8
:1005100013600BE0894B1B68BA79012101FA02F2E2
:100520001146864A0B43136000E000BF864B1B68F0
:10053000BA79012101FA02F21146834A0B43136092
:10054000AEE1FB79012B4CD17B79022B32D0022B0F
:100550003BDC002B02D0012B16D036E07B4B1B6816
:10056000BA79012101FA02F2D2431146774A0B40CF
:100570001360774B1B68BA79012101FA02F2114628
:10058000734A0B43136021E0704B1B68BA79012159
:1005900001FA02F2D24311466C4A0B4013606D4BD4
:1005A0001B68BA79012101FA02F21146694A0B432C
:1005B00013600BE0654B1B68BA79012101FA02F266
:1005C0001146624A0B43136000E000BF624B1B6898
:1005D000BA79012101FA02F211465F4A0B43136016
:1005E0005EE1FB79022B4CD17B79022B32D0022BBE
:1005F0003BDC002B02D0012B16D036E0574B1B689A
:10060000BA79012101FA02F2D2431146534A0B4052
:100610001360534B1B68BA79012101FA02F21146AB
:100620004F4A0B43136021E04C4B1B68BA79012100
:1006300001FA02F2D2431146484A0B401360494B7B
:100640001B68BA79012101FA02F21146454A0B43AF
:1006500013600BE0414B1B68BA79012101FA02F2E9
:1006600011463E4A0B43136000E000BF3E4B1B683F
:10067000BA79012101FA02F211463B4A0B43136099
:100680000EE1FB79032B4CD17B79022B32D0022B6C
:100690003BDC002B02D0012B16D036E0334B1B681D
:1006A000BA79012101FA02F2D24311462F4A0B40D6
:1006B00013602F4B1B68BA79012101FA02F211462F
:1006C0002B4A0B43136021E0284B1B68BA790121A8
:1006D00001FA02F2D2431146244A0B401360254B23
:1006E0001B68BA79012101FA02F21146214A0B4333
:1006F00013600BE01D4B1B68BA79012101FA02F26D
:1007000011461A4A0B43136000E000BF1A4B1B68E6
:10071000BA79012101FA02F21146174A0B4313601C
:10072000BEE0FB79042B6CD17B79022B52D0022BDB
:100730005BDC002B22D0012B36D056E00044004079
:10074000104500400C4500401C450040005400404E
:10075000105500400C5500401C55004000640040FE
:10076000106500400C6500401C65004000740040AE
:10077000107500400C7500401C7500404B4B1B6809
:10078000BA79012101FA02F2D2431146474A0B40DD
:100790001360474B1B68BA79012101FA02F2114636
:1007A000434A0B43136021E0404B1B68BA79012197
:1007B00001FA02F2D24311463C4A0B4013603D4B12
:1007C0001B68BA79012101FA02F21146394A0B433A
:1007D00013600BE0354B1B68BA79012101FA02F274
:1007E0001146324A0B43136000E000BF324B1B68D6
:1007F000BA79012101FA02F211462F4A0B43136024
:100800004EE0FB79052B4BD17B79022B32D0022BAA
:100810003BDC002B02D0012B16D036E0274B1B68A7
:10082000BA79012101FA02F2D2431146234A0B4060
:100830001360234B1B68BA79012101FA02F21146B9
:100840001F4A0B43136021E01C4B1B68BA7901213E
:1008500001FA02F2D2431146184A0B401360194BB9
:100860001B68BA79012101FA02F21146154A0B43BD
:1008700013600BE0114B1B68BA79012101FA02F2F7
:1008800011460E4A0B43136000E000BF0E4B1B687D
:10089000BA79012101FA02F211460B4A0B431360A7
:1008A00000BF0C37BD4680BC704700BF004402400B
:1008B000104502400C4502401C45024000540240D5
:1008C000105502400C5502401C55024080B483B0C4
:1008D00000AF0346FB710B46BB7113467B71FB797E
:1008E000002B1CD17B79002B0DD0012B40F0B38065
:1008F000614B1B68BA79012101FA02F211465E4A86
:100900000B431360B2E05C4B1B68BA79012101FA1A
:1009100002F2D2431146584A0B401360A6E0FB791D
:10092000012B1CD17B79002B0DD0012B40F0958041
:10093000524B1B68BA79012101FA02F211464F4A63
:100940000B43136092E04D4B1B68BA79012101FA09
:1009500002F2D2431146494A0B40136086E0FB790C
:10096000022B1BD17B79002B0CD0012B77D1444B70
:100970001B68BA79012101FA02F21146404A0B4381
:10098000136073E03E4B1B68BA79012101FA02F251
:10099000D24311463A4A0B40136067E0FB79032BC0
:1009A0001BD17B79002B0CD0012B5AD1354B1B6806
:1009B000BA79012101FA02F21146324A0B4313605F
:1009C00054E0304B1B68BA79012101FA02F2D2439C
:1009D00011462C4A0B40136048E0FB79042B1BD1D5
:1009E0007B79002B0CD0012B3DD1274B1B68BA79AA
:1009F000012101FA02F21146234A0B43136035E04C
:100A0000214B1B68BA79012101FA02F2D243114647
:100A10001D4A0B40136029E0FB79052B26D17B7919
:100A2000002B0CD0012B20D1184B1B68BA79012167
:100A300001FA02F21146154A0B43136016E0134BFC
:100A40001B68BA79012101FA02F2D24311460F4A1A
:100A50000B4013600AE000BF08E000BF06E000BFE3
:100A600004E000BF02E000BF00E000BF00BF0C37A1
:100A7000BD4680BC704700BFFC430040FC530040B3
:100A8000FC630040FC730040FC430240FC53024006
:100A900080B485B000AF03460A46FB711346BB71B4
:100AA0000023FB73FB79002B0AD12B4B1A68BB790F
:100AB00022FA03F3DBB203F00103FB73FB7B46E096
:100AC000FB79012B0AD1254B1A68BB7922FA03F373
:100AD000DBB203F00103FB73FB7B38E0FB79022BF5
:100AE0000AD11F4B1A68BB7922FA03F3DBB203F079
:100AF0000103FB73FB7B2AE0FB79032B0AD1194B23
:100B00001A68BB7922FA03F3DBB203F00103FB732B
:100B1000FB7B1CE0FB79042B0AD1134B1A68BB79D1
:100B200022FA03F3DBB203F00103FB73FB7B0EE05D
:100B3000FB79052B0AD10D4B1A68BB7922FA03F316
:100B4000DBB203F00103FB73FB7B00E0FB7B184689
:100B50001437BD4680BC7047FC430040FC53004046
:100B6000FC630040FC730040FC430240FC53024025
:100B700080B483B000AF03460A46FB711346BB71D5
:100B8000FB79002B20D1BB79022B06D0022B16DC7F
:100B9000002B06D0012B0BD011E0674BFF221A600F
:100BA0000EE0654B00221A60644BFF221A6007E0DA
:100BB000614B00221A60624BFF221A6000E000BF06
:100BC000604BFF221A60B2E0FB79012B20D1BB7988
:100BD000022B06D0022B16DC002B06D0012B0BD0EB
:100BE00011E0594BFF221A600EE0574B00221A60A9
:100BF000564BFF221A6007E0534B00221A60544BF9
:100C0000FF221A6000E000BF524BFF221A608EE004
:100C1000FB79022B20D1BB79022B06D0022B16DCEC
:100C2000002B06D0012B0BD011E04B4BFF221A609A
:100C30000EE0494B00221A60484BFF221A6007E081
:100C4000454B00221A60464BFF221A6000E000BFAD
:100C5000444BFF221A606AE0FB79032B20D1BB7959
:100C6000022B06D0022B16DC002B06D0012B0BD05A
:100C700011E03D4BFF221A600EE03B4B00221A6050
:100C80003A4BFF221A6007E0374B00221A60384BBC
:100C9000FF221A6000E000BF364BFF221A6046E0D8
:100CA000FB79042B20D1BB79022B06D0022B16DC5A
:100CB000002B06D0012B0BD011E02F4BFF221A6026
:100CC0000EE02D4B00221A602C4BFF221A6007E029
:100CD000294B00221A602A4BFF221A6000E000BF55
:100CE000284BFF221A6022E0FB79052B1FD1BB792C
:100CF000022B06D0022B16DC002B06D0012B0BD0CA
:100D000011E0214BFF221A600EE01F4B00221A60F7
:100D10001E4BFF221A6007E01B4B00221A601C4B7F
:100D2000FF221A6000E000BF1A4BFF221A6000BFCA
:100D30000C37BD4680BC7047004400401045004061
:100D40000C4500401C450040005400401055004038
:100D50000C5500401C5500400064004010650040E8
:100D60000C6500401C650040007400401075004098
:100D70000C7500401C7500400044024010450240C4
:100D80000C4502401C4502400054024010550240F0
:100D90000C5502401C55024080B483B000AF03469E
:100DA0000A46FB711346BB71FB79002B0CD1BB7952
:100DB000002B05D0FF2B57D1344ABB79136060E07C
:100DC000324ABB7913605CE0FB79012B0CD1BB7913
:100DD000002B05D0FF2B49D12D4ABB79136050E081
:100DE0002B4ABB7913604CE0FB79022B0CD1BB7909
:100DF000002B05D0FF2B3BD1264ABB79136040E086
:100E0000244ABB7913603CE0FB79032B0CD1BB79FE
:100E1000002B05D0FF2B2DD11F4ABB79136030E08A
:100E20001D4ABB7913602CE0FB79042B0CD1BB79F4
:100E3000002B05D0FF2B1FD1184ABB79136020E08F
:100E4000164ABB7913601CE0FB79052B16D1BB79E0
:100E5000002B05D0FF2B13D1114ABB79136010E092
:100E60000F4ABB7913600CE000BF0AE000BF08E046
:100E700000BF06E000BF04E000BF02E000BF00E0EA
:100E800000BF00BF0C37BD4680BC7047FC4300402C
:100E9000FC530040FC630040FC730040FC430240F4
:100EA000FC53024080B500AF074BEC221A700222BF
:100EB00003210520FFF7ECFA002203210520FFF7AC
:100EC00005FD00BF80BD00BF0000002080B500AF61
:100ED0000D4B1B78AB2B0AD0EC2B11D10A4BAB225C
:100EE0001A70012203210520FFF7F0FC09E0064BF0
:100EF000EC221A70002203210520FFF7E7FC00E036
:100F000000BF00BF80BD00BF0000002080B500AF63
:100F100000F004F800F05EF8FCE7000080B582B055
:100F200000AF294B00221A7000237B6024E0274980
:100F30007A6813465B001344DB000B4403F108019D
:100F40004FF000024FF00003C1E900231F497A6807
:100F500013465B001344DB000B4400221A601B495C
:100F60007A6813465B001344DB000B441033002205
:100F70001A607B6801337B607B68092BD7D900231B
:100F80007B6012497A6813465B001344DB000B4414
:100F90004FF47A721A600D497A6813465B00134465
:100FA000DB000B4410330A4A1A607B6801337B6014
:100FB00003210520FFF75AF9FFF774FF00F0B7F897
:100FC00000BF0837BD4680BDF800002008000020A3
:100FD000CD0E00002DE9B04382B000AF00237B604E
:100FE000204B1B78002B37D02DE07A6813465B002E
:100FF0001344DB001C4A13443B603B681B69002B15
:101000001ED03B68D3E9022312F1010843F1000925
:101010003B68C3E902893B68D3E902233968096860
:1010200000200C460546A242AB4109D33B681B6930
:10103000984739684FF000024FF00003C1E90223DE
:101040007B6801337B607B68092BCED9054B1B780D
:10105000013BDAB2034B1A7000BF0837BD46BDE84A
:10106000B08300BFF80000200800002080B400AF6B
:10107000044B1B780133DAB2024B1A7000BFBD4635
:1010800080BC7047F800002080B584B000AF1A4AD9
:101090001A4BD31A3B60194BFB60194BBB60002302
:1010A0007B6000237B600AE0BA68531CBB60FB686E
:1010B000591CF96012781A707B6801337B607A687A
:1010C0003B689A42F0D30F4A0F4BD31A3B600E4B4A
:1010D000FB6000237B6007E0FB685A1CFA6000227B
:1010E0001A707B6801337B607A683B689A42F3D35D
:1010F000FFF70CFFFEE700BF00000020000000200B
:1011000078110000FC0000200000002080B400AF37
:10111000FEE780B500AFFFF7B7FF00BF80BD00BF9F
:1011200080B400AF62B600BFBD4680BC704780B5DA
:1011300000AF084B00221A60074B43F67F621A602B
:10114000044B07221A60054B00221A60FFF7E8FFE4
:1011500000BF80BD10E000E014E000E018E000E017
:1011600080B500AF00F002F800BF80BD80B500AFD1
:08117000FFF77CFF00BF80BD0A
:00000001FF
