:10000000008000200F2C0000092C0000092C0000AB
:10001000092C0000092C0000092C00000000000041
:10002000000000000000000000000000092C00009B
:10003000092C000000000000092C00005D2C0000CD
:10004000092C0000092C0000092C0000092C0000DC
:10005000092C0000092C0000092C0000092C0000CC
:10006000092C0000092C0000092C0000092C0000BC
:10007000092C0000092C0000092C0000092C0000AC
:10008000092C0000092C0000092C0000092C00009C
:10009000092C0000092C0000092C0000092C00008C
:1000A000092C0000092C0000092C000000000000B1
:1000B000092C0000092C0000092C000000000000A1
:1000C00000000000092C0000092C0000092C000091
:1000D000092C0000092C0000092C0000092C00004C
:1000E000092C00000000000000000000092C0000A6
:1000F000092C0000092C0000092C0000092C00002C
:10010000092C0000092C0000092C0000092C00001B
:1001100000000000000000000000000000000000DF
:1001200000000000092C0000092C0000092C000030
:10013000092C0000092C0000092C0000092C0000EB
:1001400000000000000000000000000000000000AF
:10015000092C0000092C0000092C0000092C0000CB
:10016000000000000000000000000000000000008F
:10017000000000000000000000000000000000007F
:10018000000000000000000000000000000000006F
:10019000000000000000000000000000000000005F
:1001A000000000000000000000000000000000004F
:1001B000092C0000092C0000092C0000092C00006B
:1001C000092C0000092C0000092C0000092C00005B
:1001D000092C0000092C0000092C0000092C00004B
:1001E000092C0000092C0000092C00000000000070
:1001F00000000000000000000000000000000000FF
:1002000000000000000000000000000000000000EE
:1002100000000000000000000000000000000000DE
:1002200000000000000000000000000000000000CE
:1002300000000000000000000000000000000000BE
:1002400000000000000000000000000000000000AE
:100250000000000000000000092C0000092C000034
:10026000092C0000092C0000092C000080B485B086
:1002700000AF03460A46FB711346BB71FB79002BA6
:100280001FD1694B1B68FA79012101FA02F211466C
:10029000654A0B4313600123FB60644B644A1A6098
:1002A000644B1B68BA79012101FA02F21146614AD6
:1002B0000B431360604B00221A60604B00221A60EF
:1002C000ADE0FB79012B1FD1574B1B68FA79012157
:1002D00001FA02F21146544A0B4313600123FB60FA
:1002E000574B534A1A60574B1B68BA79012101FAE0
:1002F00002F21146534A0B431360534B00221A601B
:10030000524B00221A608AE0FB79022B1FD1464B28
:100310001B68FA79012101FA02F21146424A0B43A5
:1003200013600123FB604A4B414A1A60494B1B682A
:10033000BA79012101FA02F21146464A0B431360D1
:10034000454B00221A60454B00221A6067E0FB799A
:10035000032B1FD1344B1B68FA79012101FA02F2F9
:100360001146314A0B4313600123FB603C4B304A7A
:100370001A603C4B1B68BA79012101FA02F211465E
:10038000384A0B431360384B00221A60374B002267
:100390001A6044E0FB79042B1FD1234B1B68FA79C8
:1003A000012101FA02F211461F4A0B431360012397
:1003B000FB602F4B1E4A1A602E4B1B68BA79012135
:1003C00001FA02F211462B4A0B4313602A4B00221A
:1003D0001A602A4B00221A6021E0FB79052B1ED1FE
:1003E000114B1B68FA79012101FA02F211460E4AFB
:1003F0000B4313600123FB60214B0D4A1A60214B14
:100400001B68BA79012101FA02F211461D4A0B4319
:1004100013601D4B00221A601C4B00221A6000BFA3
:100420001437BD4680BC704708E60F4020450040A9
:100430004B434F4C24450040204400402845004099
:1004400020550040245500402054004028550040CD
:10045000206500402465004020640040286500407D
:10046000207500402475004020740040287500402D
:1004700020450240244502402044024028450240D5
:100480002055024024550240205402402855024085
:1004900080B483B000AF0346FB710B46BB711346BB
:1004A0007B71FB79002B4CD17B79022B32D0022B54
:1004B0003BDC002B02D0012B16D036E09F4B1B6893
:1004C000BA79012101FA02F2D24311469B4A0B404C
:1004D00013609B4B1B68BA79012101FA02F21146A5
:1004E000974A0B43136021E0944B1B68BA790121B2
:1004F00001FA02F2D2431146904A0B401360914B2D
:100500001B68BA79012101FA02F211468D4A0B43A8
:1005100013600BE0894B1B68BA79012101FA02F2E2
:100520001146864A0B43136000E000BF864B1B68F0
:10053000BA79012101FA02F21146834A0B43136092
:10054000AEE1FB79012B4CD17B79022B32D0022B0F
:100550003BDC002B02D0012B16D036E07B4B1B6816
:10056000BA79012101FA02F2D2431146774A0B40CF
:100570001360774B1B68BA79012101FA02F2114628
:10058000734A0B43136021E0704B1B68BA79012159
:1005900001FA02F2D24311466C4A0B4013606D4BD4
:1005A0001B68BA79012101FA02F21146694A0B432C
:1005B00013600BE0654B1B68BA79012101FA02F266
:1005C0001146624A0B43136000E000BF624B1B6898
:1005D000BA79012101FA02F211465F4A0B43136016
:1005E0005EE1FB79022B4CD17B79022B32D0022BBE
:1005F0003BDC002B02D0012B16D036E0574B1B689A
:10060000BA79012101FA02F2D2431146534A0B4052
:100610001360534B1B68BA79012101FA02F21146AB
:100620004F4A0B43136021E04C4B1B68BA79012100
:1006300001FA02F2D2431146484A0B401360494B7B
:100640001B68BA79012101FA02F21146454A0B43AF
:1006500013600BE0414B1B68BA79012101FA02F2E9
:1006600011463E4A0B43136000E000BF3E4B1B683F
:10067000BA79012101FA02F211463B4A0B43136099
:100680000EE1FB79032B4CD17B79022B32D0022B6C
:100690003BDC002B02D0012B16D036E0334B1B681D
:1006A000BA79012101FA02F2D24311462F4A0B40D6
:1006B00013602F4B1B68BA79012101FA02F211462F
:1006C0002B4A0B43136021E0284B1B68BA790121A8
:1006D00001FA02F2D2431146244A0B401360254B23
:1006E0001B68BA79012101FA02F21146214A0B4333
:1006F00013600BE01D4B1B68BA79012101FA02F26D
:1007000011461A4A0B43136000E000BF1A4B1B68E6
:10071000BA79012101FA02F21146174A0B4313601C
:10072000BEE0FB79042B6CD17B79022B52D0022BDB
:100730005BDC002B22D0012B36D056E00044004079
:10074000104500400C4500401C450040005400404E
:10075000105500400C5500401C55004000640040FE
:10076000106500400C6500401C65004000740040AE
:10077000107500400C7500401C7500404B4B1B6809
:10078000BA79012101FA02F2D2431146474A0B40DD
:100790001360474B1B68BA79012101FA02F2114636
:1007A000434A0B43136021E0404B1B68BA79012197
:1007B00001FA02F2D24311463C4A0B4013603D4B12
:1007C0001B68BA79012101FA02F21146394A0B433A
:1007D00013600BE0354B1B68BA79012101FA02F274
:1007E0001146324A0B43136000E000BF324B1B68D6
:1007F000BA79012101FA02F211462F4A0B43136024
:100800004EE0FB79052B4BD17B79022B32D0022BAA
:100810003BDC002B02D0012B16D036E0274B1B68A7
:10082000BA79012101FA02F2D2431146234A0B4060
:100830001360234B1B68BA79012101FA02F21146B9
:100840001F4A0B43136021E01C4B1B68BA7901213E
:1008500001FA02F2D2431146184A0B401360194BB9
:100860001B68BA79012101FA02F21146154A0B43BD
:1008700013600BE0114B1B68BA79012101FA02F2F7
:1008800011460E4A0B43136000E000BF0E4B1B687D
:10089000BA79012101FA02F211460B4A0B431360A7
:1008A00000BF0C37BD4680BC704700BF004402400B
:1008B000104502400C4502401C45024000540240D5
:1008C000105502400C5502401C55024080B483B0C4
:1008D00000AF0346FB710B46BB7113467B71FB797E
:1008E000002B1CD17B79002B0DD0012B40F0B38065
:1008F000614B1B68BA79012101FA02F211465E4A86
:100900000B431360B2E05C4B1B68BA79012101FA1A
:1009100002F2D2431146584A0B401360A6E0FB791D
:10092000012B1CD17B79002B0DD0012B40F0958041
:10093000524B1B68BA79012101FA02F211464F4A63
:100940000B43136092E04D4B1B68BA79012101FA09
:1009500002F2D2431146494A0B40136086E0FB790C
:10096000022B1BD17B79002B0CD0012B77D1444B70
:100970001B68BA79012101FA02F21146404A0B4381
:10098000136073E03E4B1B68BA79012101FA02F251
:10099000D24311463A4A0B40136067E0FB79032BC0
:1009A0001BD17B79002B0CD0012B5AD1354B1B6806
:1009B000BA79012101FA02F21146324A0B4313605F
:1009C00054E0304B1B68BA79012101FA02F2D2439C
:1009D00011462C4A0B40136048E0FB79042B1BD1D5
:1009E0007B79002B0CD0012B3DD1274B1B68BA79AA
:1009F000012101FA02F21146234A0B43136035E04C
:100A0000214B1B68BA79012101FA02F2D243114647
:100A10001D4A0B40136029E0FB79052B26D17B7919
:100A2000002B0CD0012B20D1184B1B68BA79012167
:100A300001FA02F21146154A0B43136016E0134BFC
:100A40001B68BA79012101FA02F2D24311460F4A1A
:100A50000B4013600AE000BF08E000BF06E000BFE3
:100A600004E000BF02E000BF00E000BF00BF0C37A1
:100A7000BD4680BC704700BFFC430040FC530040B3
:100A8000FC630040FC730040FC430240FC53024006
:100A900080B485B000AF03460A46FB711346BB71B4
:100AA0000023FB73FB79002B0AD12B4B1A68BB790F
:100AB00022FA03F3DBB203F00103FB73FB7B46E096
:100AC000FB79012B0AD1254B1A68BB7922FA03F373
:100AD000DBB203F00103FB73FB7B38E0FB79022BF5
:100AE0000AD11F4B1A68BB7922FA03F3DBB203F079
:100AF0000103FB73FB7B2AE0FB79032B0AD1194B23
:100B00001A68BB7922FA03F3DBB203F00103FB732B
:100B1000FB7B1CE0FB79042B0AD1134B1A68BB79D1
:100B200022FA03F3DBB203F00103FB73FB7B0EE05D
:100B3000FB79052B0AD10D4B1A68BB7922FA03F316
:100B4000DBB203F00103FB73FB7B00E0FB7B184689
:100B50001437BD4680BC7047FC430040FC53004046
:100B6000FC630040FC730040FC430240FC53024025
:100B700080B483B000AF03460A46FB711346BB71D5
:100B8000FB79002B20D1BB79022B06D0022B16DC7F
:100B9000002B06D0012B0BD011E0674BFF221A600F
:100BA0000EE0654B00221A60644BFF221A6007E0DA
:100BB000614B00221A60624BFF221A6000E000BF06
:100BC000604BFF221A60B2E0FB79012B20D1BB7988
:100BD000022B06D0022B16DC002B06D0012B0BD0EB
:100BE00011E0594BFF221A600EE0574B00221A60A9
:100BF000564BFF221A6007E0534B00221A60544BF9
:100C0000FF221A6000E000BF524BFF221A608EE004
:100C1000FB79022B20D1BB79022B06D0022B16DCEC
:100C2000002B06D0012B0BD011E04B4BFF221A609A
:100C30000EE0494B00221A60484BFF221A6007E081
:100C4000454B00221A60464BFF221A6000E000BFAD
:100C5000444BFF221A606AE0FB79032B20D1BB7959
:100C6000022B06D0022B16DC002B06D0012B0BD05A
:100C700011E03D4BFF221A600EE03B4B00221A6050
:100C80003A4BFF221A6007E0374B00221A60384BBC
:100C9000FF221A6000E000BF364BFF221A6046E0D8
:100CA000FB79042B20D1BB79022B06D0022B16DC5A
:100CB000002B06D0012B0BD011E02F4BFF221A6026
:100CC0000EE02D4B00221A602C4BFF221A6007E029
:100CD000294B00221A602A4BFF221A6000E000BF55
:100CE000284BFF221A6022E0FB79052B1FD1BB792C
:100CF000022B06D0022B16DC002B06D0012B0BD0CA
:100D000011E0214BFF221A600EE01F4B00221A60F7
:100D10001E4BFF221A6007E01B4B00221A601C4B7F
:100D2000FF221A6000E000BF1A4BFF221A6000BFCA
:100D30000C37BD4680BC7047004400401045004061
:100D40000C4500401C450040005400401055004038
:100D50000C5500401C5500400064004010650040E8
:100D60000C6500401C650040007400401075004098
:100D70000C7500401C7500400044024010450240C4
:100D80000C4502401C4502400054024010550240F0
:100D90000C5502401C55024080B483B000AF03469E
:100DA0000A46FB711346BB71FB79002B0CD1BB7952
:100DB000002B05D0FF2B57D1344ABB79136060E07C
:100DC000324ABB7913605CE0FB79012B0CD1BB7913
:100DD000002B05D0FF2B49D12D4ABB79136050E081
:100DE0002B4ABB7913604CE0FB79022B0CD1BB7909
:100DF000002B05D0FF2B3BD1264ABB79136040E086
:100E0000244ABB7913603CE0FB79032B0CD1BB79FE
:100E1000002B05D0FF2B2DD11F4ABB79136030E08A
:100E20001D4ABB7913602CE0FB79042B0CD1BB79F4
:100E3000002B05D0FF2B1FD1184ABB79136020E08F
:100E4000164ABB7913601CE0FB79052B16D1BB79E0
:100E5000002B05D0FF2B13D1114ABB79136010E092
:100E60000F4ABB7913600CE000BF0AE000BF08E046
:100E700000BF06E000BF04E000BF02E000BF00E0EA
:100E800000BF00BF0C37BD4680BC7047FC4300402C
:100E9000FC530040FC630040FC730040FC430240F4
:100EA000FC53024080B500AF04210020FFF7DEF9BB
:100EB000074BEC221A70022204210020FFF7E8FA07
:100EC000002204210020FFF701FD00BF80BD00BF0C
:100ED0000000002080B500AF0D4B1B78AB2B0AD073
:100EE000EC2B11D10A4BAB221A70012204210020F5
:100EF000FFF7ECFC09E0064BEC221A7000220421FB
:100F00000020FFF7E3FC00E000BF00BF80BD00BF92
:100F10000000002080B500AF00F04EF900F0DAF9D3
:100F2000FCE780B500AF0421012000F02DFA052078
:100F300000F004FB0421012000F01AFB0421012031
:100F400000F0E0FE04220121012000F06BFF3223BB
:100F500005220421012001F0BBF9322301220421E2
:100F6000012001F075FA0421012001F027FD05217F
:100F7000012000F009FA052000F0E0FA0521012027
:100F800000F0F6FA0521012000F0BCFE0522012147
:100F9000012000F047FF322305220521012001F046
:100FA00097F9322301220521012001F051FA052190
:100FB000012001F003FD0621012000F0E5F90520E4
:100FC00000F0BCFA0621012000F0D2FA062101202F
:100FD00000F098FE06220121012000F023FF3223B9
:100FE00005220621012001F073F932230122062196
:100FF000012001F02DFA0621012001F0DFFC07217C
:10100000012000F0C1F9052000F098FA0721012025
:1010100000F0AEFA0721012000F074FE0722012142
:10102000012000F0FFFE322305220721012001F0FC
:101030004FF9322301220721012001F009FA07218B
:10104000012001F0BBFC02210020FFF70FF9032172
:101050000020FFF70BF9022202210020FFF718FA07
:10106000022203210020FFF713FA002202210020B0
:10107000FFF72CFC002203210020FFF727FC00F0E3
:1010800030F800BF80BD80B400AF00BFBD4680BC5B
:10109000704780B500AF0421012001F08FFC0521CD
:1010A000012001F08BFC0621012001F087FC0721C3
:1010B000012001F083FC00BF80BD80B500AF04219A
:1010C000012000F01FFE0521012000F01BFE06217B
:1010D000012000F017FE0721012000F013FE00BFE1
:1010E00080BD80B500AF012202210020FFF7EEFB9A
:1010F000002203210020FFF7E9FB00BF80BD80B57F
:1011000082B000AF0346FB71FB79002B18D1192385
:1011100001220421012001F09BF91923012205215C
:10112000012001F095F9192301220621012001F087
:101130008FF9192301220721012001F089F936E0F6
:10114000FB79012B18D1322301220421012001F067
:101150007FF9322301220521012001F079F93223A0
:1011600001220621012001F073F932230122072117
:10117000012001F06DF91AE0FB79022B17D14B2306
:1011800001220421012001F063F94B2301220521F2
:10119000012001F05DF94B2301220621012001F01D
:1011A00057F94B2301220721012001F051F900BF1B
:1011B0000837BD4680BD000080B582B000AF404B0F
:1011C00000221A7000237B6024E03E497A681346AF
:1011D0005B001344DB000B4403F108014FF00002F5
:1011E0004FF00003C1E9002336497A6813465B00DB
:1011F0001344DB000B4400221A6032497A6813461C
:101200005B001344DB000B44103300221A607B6840
:1012100001337B607B68092BD7D900237B60294988
:101220007A6813465B001344DB000B444FF47A7278
:101230001A6024497A6813465B001344DB000B44B0
:101240001033214A1A607B6801337B601D497A683C
:1012500013465B001344DB000B4401221A6019495A
:101260007A6813465B001344DB000B441033174AC3
:101270001A607B6801337B6012497A6813465B0011
:101280001344DB000B444FF47A721A600D497A68FC
:1012900013465B001344DB000B4410330C4A1A6006
:1012A0007B6801337B60FFF7FDFDFFF73AFE01F03D
:1012B000E1FC01F0BAFC00BF0837BD4680BD00BFAD
:1012C000F800002008000020D50E00008710000064
:1012D000A92C00002DE9B04382B000AF00237B6051
:1012E000204B1B78002B37D02DE07A6813465B002B
:1012F0001344DB001C4A13443B603B681B69002B12
:101300001ED03B68D3E9022312F1010843F1000922
:101310003B68C3E902893B68D3E90223396809685D
:1013200000200C460546A242AB4109D33B681B692D
:10133000984739684FF000024FF00003C1E90223DB
:101340007B6801337B607B68092BCED9054B1B780A
:10135000013BDAB2034B1A7000BF0837BD46BDE847
:10136000B08300BFF80000200800002080B400AF68
:10137000044B1B780133DAB2024B1A7000BFBD4632
:1013800080BC7047F800002080B483B000AF0346F3
:101390000A46FB711346BB71664B1B68FA79012143
:1013A00001FA02F21146634A0B431360FB79002BEA
:1013B00002D0012B5CD0B7E0BB79072B56D801A235
:1013C00052F823F0E5130000F313000001140000AD
:1013D0000F1400001D1400002B140000391400002D
:1013E00053140000544B1B68534A43F0020313602C
:1013F0003DE0514B1B68504A43F00203136036E056
:101400004D4B1B684C4A43F0020313602FE04A4BDC
:101410001B68494A43F00203136028E0464B1B68EF
:10142000454A43F01003136021E0434B1B68424AD6
:1014300043F0100313601AE03F4B1B683E4A43F031
:10144000080313603C4B1B683B4A43F004031360E2
:101450000DE0394B1B68384A43F008031360364BE4
:101460001B68354A43F00403136000E000BF5BE0F3
:10147000BB79072B56D801A252F823F09D14000027
:10148000AB140000B9140000D3140000ED140000E8
:10149000FB1400000915000017150000264B1B68FF
:1014A000254A43F0080313603DE0234B1B68224AA2
:1014B00043F00803136036E01F4B1B681E4A43F0DD
:1014C000010313601C4B1B681B4A43F0100313609D
:1014D00029E0194B1B68184A43F001031360164BAF
:1014E0001B68154A43F0100313601CE0124B1B6885
:1014F000114A43F02003136015E00F4B1B680E4A9E
:1015000043F0200313600EE00B4B1B680A4A43F0C4
:101510002003136007E0084B1B68074A43F02003D1
:10152000136000E000BF00BF00BF0C37BD4680BCA9
:10153000704700BF40E60F4008E60F4080B483B01C
:1015400000AF0346FB71094B1B68084A43F4801344
:101550001360064B1B68FA7952041146034A0B4389
:10156000136000BF0C37BD4680BC704760E00F4081
:1015700080B483B000AF03460A46FB711346BB71CB
:10158000FB79002B03D0012B00F0C181A7E3BB79CD
:10159000072B00F2A38301A252F823F0BD1500002F
:1015A0000D1600005D160000AD160000FD160000CF
:1015B0004D170000D11700006F180000774B784AD4
:1015C0001A60784B1B68774A43F040031360764BF0
:1015D0001B68754A43F040031360744B1B68734AE1
:1015E00043F040031360724B1B68714A23F470038D
:1015F00013606F4B1B686E4A43F4800313606D4B9E
:101600001B686C4A43F0400313607FE1634B644AFC
:101610001A60644B1B68634A43F080031360624B9B
:101620001B68614A43F080031360604B1B685F4A8C
:1016300043F0800313605E4B1B685D4A23F07063C8
:1016400013605B4B1B685A4A43F080631360594B2D
:101650001B68584A43F08003136057E14F4B504AD0
:101660001A60504B1B684F4A43F0100313604E4BF7
:101670001B684D4A43F0100313604C4B1B684B4AE8
:1016800043F0100313604A4B1B68494A23F470432C
:101690001360474B1B68464A43F480431360454B35
:1016A0001B68444A43F0100313602FE13B4B3C4A54
:1016B0001A603C4B1B683B4A43F0200313603A4BD3
:1016C0001B68394A43F020031360384B1B68374AC4
:1016D00043F020031360364B1B68354A23F4700334
:1016E0001360334B1B68324A43F480031360314B61
:1016F0001B68304A43F02003136007E12E4B284A51
:101700001A602E4B1B682D4A43F0100313602C4BBC
:101710001B682B4A43F0100313602A4B1B68294AAD
:1017200043F010031360284B1B68274A23F47023EF
:101730001360254B1B68244A43F480231360234B1A
:101740001B68224A43F010031360DFE01A4B144A6F
:101750001A601A4B1B68194A43F020031360184B98
:101760001B68174A43F020031360164B1B68154A89
:1017700043F020031360144B1B68134A23F47003D7
:101780001360114B1B68104A43F4800313600F4B26
:101790001B680E4A43F020031360B7E02055004059
:1017A0004B434F4C2455004000540040205400400F
:1017B0002C5500401C550040204502402445024065
:1017C00000440240204402402C4502401C45024097
:1017D000824B834A1A60834B1B68824A43F00103A1
:1017E0001360814B1B68804A43F0010313607F4BF9
:1017F0001B687E4A43F0010313607D4B1B687C4AE3
:1018000023F00F0313607A4B1B68794A43F00403FB
:101810001360784B1B68774A43F001031360764BE3
:101820006F4A1A60754B1B68744A43F010031360CB
:10183000734B1B68724A43F010031360714B1B68B3
:10184000704A43F0100313606F4B1B686E4A23F419
:10185000702313606C4B1B686B4A43F48043136026
:101860006A4B1B68694A43F0100313604EE05B4B00
:101870005B4A1A605B4B1B685A4A43F002031360D1
:10188000594B1B68584A43F002031360574B1B68BF
:10189000564A43F002031360554B1B68544A23F029
:1018A000F0031360524B1B68514A43F0400313602E
:1018B000504B1B684F4A43F0020313604E4B484A9B
:1018C0001A604E4B1B684D4A43F0200313604C4B8B
:1018D0001B684B4A43F0200313604A4B1B68494A7C
:1018E00043F020031360484B1B68474A23F47003FE
:1018F0001360454B1B68444A43F480031360434B19
:101900001B68424A43F02003136000BFE6E1BB7945
:10191000072B00F2E18101A252F823F03D190000EB
:101920008D190000111A0000AF1A00004D1B0000B5
:101930009D1B0000ED1B0000891C0000274B284A5E
:101940001A60284B1B68274A43F001031360264B9B
:101950001B68254A43F001031360244B1B68234A8C
:1019600043F001031360224B1B68214A23F00F034D
:1019700013601F4B1B681E4A43F0050313601D4B89
:101980001B681C4A43F001031360A6E1134B144A81
:101990001A60144B1B68134A43F002031360124B86
:1019A0001B68114A43F002031360104B1B680F4A77
:1019B00043F0020313600E4B1B680D4A23F0F00343
:1019C00013600B4B1B680A4A43F050031360094B2A
:1019D0001B68084A43F0020313607EE12075004053
:1019E0004B434F4C2475004000740040207400406D
:1019F0002C7500401C7500402065004024650040A7
:101A000000640040206400402C6500401C650040DC
:101A10008A4B8B4A1A608B4B1B688A4A43F04003FF
:101A20001360894B1B68884A43F040031360874B5F
:101A30001B68864A43F040031360854B1B68844A49
:101A400023F070631360824B1B68814A43F0A063EC
:101A50001360804B1B687F4A43F0400313607E4B4A
:101A6000774A1A607D4B1B687C4A43F01003136071
:101A70007B4B1B687A4A43F010031360794B1B6859
:101A8000784A43F010031360774B1B68764A23F4BF
:101A900070231360744B1B68734A43F4A0231360D4
:101AA000724B1B68714A43F01003136015E1634BDE
:101AB000634A1A60634B1B68624A43F080031360F9
:101AC000614B1B68604A43F0800313605F4B1B68E7
:101AD0005E4A43F0800313605D4B1B685C4A23F051
:101AE000704313605A4B1B68594A43F0A04313607C
:101AF000584B1B68574A43F080031360564B504ABB
:101B00001A60564B1B68554A43F020031360544B30
:101B10001B68534A43F020031360524B1B68514A21
:101B200043F020031360504B1B684F4A23F47003AB
:101B300013604D4B1B684C4A43F4A00313604B4B9E
:101B40001B684A4A43F020031360C6E0484B3C4AF6
:101B50001A60484B1B68474A43F001031360464B29
:101B60001B68454A43F001031360444B1B68434A1A
:101B700043F001031360424B1B68414A23F00F03FB
:101B800013603F4B1B683E4A43F0050313603D4B17
:101B90001B683C4A43F0010313609EE0344B284A23
:101BA0001A60344B1B68334A43F002031360324B14
:101BB0001B68314A43F002031360304B1B682F4A05
:101BC00043F0020313602E4B1B682D4A23F0F003F1
:101BD00013602B4B1B682A4A43F050031360294BB8
:101BE0001B68284A43F00203136076E0204B144A36
:101BF0001A60204B1B681F4A43F0040313601E4BFE
:101C00001B681D4A43F0040313601C4B1B681B4AEE
:101C100043F0040313601A4B1B68194A23F47063E2
:101C20001360174B1B68164A43F4A0631360154BEF
:101C30001B68144A43F0040313604EE02045004043
:101C40004B434F4C2445004000440040204400409A
:101C50002C4500401C4500402045024024450240E0
:101C600000440240204402402C4502401C450240F2
:101C700020550240245502400054024020540240A6
:101C80002C5502401C550240174B184A1A60184B3D
:101C90001B68174A43F008031360164B1B68154A6C
:101CA00043F008031360144B1B68134A43F0080306
:101CB0001360124B1B68114A23F4704313600F4BDF
:101CC0001B680E4A43F4A04313600D4B1B680C4A7B
:101CD00043F00803136000E000BF00E000BF00BF56
:101CE0000C37BD4680BC7047205502404B434F4CDB
:101CF0002455024000540240205402402C5502401A
:101D00001C55024080B483B000AF03460A46FB7105
:101D10001346BB71FB79002B02D0012B35D06CE050
:101D2000BB79002B02D0BB79012B06D1354B1B6848
:101D3000344A23F00103136026E0BB79022B02D062
:101D4000BB79032B06D1304B1B682F4A23F00103CC
:101D5000136019E0BB79042B02D0BB79052B06D1A7
:101D60002A4B1B68294A23F0010313600CE0BB795E
:101D7000062B02D0BB79072B3CD1254B1B68244A8C
:101D800023F00103136035E034E0BB79002B02D06F
:101D9000BB79012B06D11F4B1B681E4A23F00103A0
:101DA000136026E0BB79022B02D0BB79032B06D14E
:101DB000194B1B68184A23F00103136019E0BB7923
:101DC000042B02D0BB79052B06D1144B1B68134A98
:101DD00023F0010313600CE0BB79062B02D0BB7922
:101DE000072B09D10E4B1B680D4A23F0010313602A
:101DF00002E001E000BF00E000BF00BF0C37BD46BD
:101E000080BC70474080024080800240C080024019
:101E1000008102404090024080900240C090024009
:101E20000091024080B483B000AF0346FB710B46C3
:101E3000BB7113467B71FB79002B03D0012B00F0A3
:101E4000118129E27B79072B00F2258201A252F849
:101E500023F000BF751E0000B71E0000F91E000031
:101E6000351F0000731F0000AF1F0000ED1F0000B2
:101E700029200000BB79002B02D0012B0DD019E0E6
:101E8000964B1B68954A43F002031360944B1B6802
:101E9000934A43F0180313600CE0904B1B688F4A81
:101EA00023F0020313608E4B1B688D4A43F08C03B2
:101EB000136000BFD5E0BB79002B02D0012B0DD001
:101EC00019E0864B1B68854A43F002031360854B7B
:101ED0001B68844A43F4C06313600CE07F4B1B68AB
:101EE0007E4A23F0020313607E4B1B687D4A43F455
:101EF000C053136000BFB4E0BB79002B02D0012BAC
:101F00000AD016E0784B1B68774A43F0020313604F
:101F1000764B18221A600CE0734B1B68724A23F050
:101F200002031360714B1B68704A43F08C0313600B
:101F300000BF96E0BB79002B02D0012B0DD017E03B
:101F4000694B1B68684A43F002031360684B1B68C7
:101F5000674A43F4C06313600AE0634B1B68624A3C
:101F600023F002031360624B40F60C021A6000BFBC
:101F700077E0BB79002B02D0012B0AD016E05D4B35
:101F80001B685C4A43F0020313605B4B18221A6023
:101F90000CE0584B1B68574A23F002031360564B62
:101FA0001B68554A43F08C03136000BF59E0BB79AE
:101FB000002B02D0012B0DD017E04E4B1B684D4A71
:101FC00043F0020313604D4B1B684C4A43F4C0635B
:101FD00013600AE0474B1B68464A23F00203136074
:101FE000464B40F60C021A6000BF3AE0BB79002B6A
:101FF00002D0012B0AD016E0414B1B68404A43F047
:10200000020313603F4B18221A600CE03C4B1B6824
:102010003B4A23F0020313603A4B1B68394A43F0F2
:102020008C03136000BF1CE0BB79002B02D0012B96
:102030000BD015E0324B1B68314A43F002031360AA
:10204000314B4FF4C0621A600AE02D4B1B682C4ADA
:1020500023F0020313602C4B40F60C021A6000BF01
:1020600000BF18E17B79072B00F2138101A252F81F
:1020700023F000BF95200000D12000004321000084
:1020800079210000B3210000E92100002322000093
:1020900059220000BB79002B02D0012B0AD016E098
:1020A0001A4B1B68194A43F002031360184B18229D
:1020B0001A600CE0154B1B68144A23F002031360EE
:1020C000134B1B68124A43F08C03136000BFE1E01E
:1020D000BB79002B1ED0012B27D031E0408002407D
:1020E000608002406480024080800240A080024004
:1020F000A4800240C0800240E0800240E4800240B0
:102100000081024020810240248102404090024030
:1021100060900240634B1B68624A43F00203136005
:10212000614B4FF4C0621A600AE05E4B1B685D4A67
:1021300023F0020313605C4B40F60C021A6000BFF0
:10214000A8E0BB79002B02D0012B0AD013E0574B3B
:102150001B68564A43F002031360554B18221A605D
:1021600009E0524B1B68514A23F002031360504BA5
:102170008C221A6000BF8DE0BB79002B02D0012BAE
:102180000BD015E04B4B1B684A4A43F00203136027
:10219000494B4FF4C0621A600AE0464B1B68454A3F
:1021A00023F002031360444B40F60C021A6000BF98
:1021B00070E0BB79002B02D0012B0AD013E03B4B1F
:1021C0001B683A4A43F0020313603C4B18221A6022
:1021D00009E0364B1B68354A23F002031360374B86
:1021E0008C221A6000BF55E0BB79002B02D0012B76
:1021F0000BD015E02D4B1B682C4A43F002031360F3
:102200002F4B4FF4C0621A600AE0284B1B68274A24
:1022100023F0020313602A4B40F60C021A6000BF41
:1022200038E0BB79002B02D0012B0AD013E0254BFC
:102230001B68244A43F002031360234B18221A60E0
:1022400009E0204B1B681F4A23F0020313601E4B5A
:102250008C221A6000BF1DE0BB79002B02D0012B3D
:102260000BD015E0174B1B68164A43F002031360AE
:10227000164B4FF4C0621A600AE0124B1B68114AF9
:1022800023F002031360114B40F60C021A6000BFEA
:1022900000E000BF00E000BF00BF0C37BD4680BCBF
:1022A000704700BF4090024064900240C0900240DE
:1022B000A090024080900240A4900240E090024032
:1022C000E49002400091024020910240249102409B
:1022D00080B485B000AF3B600346FB710B46BB7119
:1022E00013467B710023FB607B79052B20D801A26C
:1022F00052F823F00D2300001323000019230000DF
:102300001F230000252300002B230000404BFB600F
:1023100010E0404BFB600DE03F4BFB600AE03F4BA1
:10232000FB6007E03E4BFB6004E03E4BFB6001E0DE
:102330003D4BFB60FA683B68B2FBF3F33B4A13602A
:10234000FB79002B02D0012B2DD05CE0BB79002B58
:1023500002D0BB79012B04D1354A344B1B68136082
:1023600020E0BB79022B02D0BB79032B04D1314A88
:102370002E4B1B68136015E0BB79042B02D0BB7990
:10238000052B04D12C4A294B1B6813600AE0BB794A
:10239000062B02D0BB79072B32D1284A234B1B686E
:1023A00013602DE02CE0BB79002B02D0BB79012B10
:1023B00004D1234A1D4B1B68136020E0BB79022B1C
:1023C00002D0BB79032B04D11E4A184B1B68136043
:1023D00015E0BB79042B02D0BB79052B04D11A4A36
:1023E000124B1B6813600AE0BB79062B02D0BB7945
:1023F000072B07D1154A0D4B1B68136002E001E063
:1024000000BF00E000BF00BF1437BD4680BC70476E
:1024100000127A0000093D0080841E0040420F0037
:1024200020A1070090D003000024F400FC0000204D
:102430005080024090800240D080024010810240D3
:102440005090024090900240D09002401091024083
:10245000B0B584B000AF3B600346FB710B46BB7167
:1024600013467B719E4B41F288321A600023FB6059
:10247000FB79002B03D0012B00F046817FE2BB7972
:10248000072B00F22B8101A252F823F0AD240000AB
:10249000F3240000392500007F250000C525000039
:1024A0000B26000051260000972600007B79002BA8
:1024B00002D0012B0DD01BE03B688A4AA2FB03230C
:1024C0005B09874A126802FB03F3874A013B1360EA
:1024D0000EE03B68C3F16403824AA2FB03235B095D
:1024E0007F4A126802FB03F37F4A013B136000BF7F
:1024F000F5E07B79002B02D0012B0DD01BE03B686F
:10250000784AA2FB03235B09754A126802FB03F3B6
:10251000764A013B13600EE03B68C3F16403714AE5
:10252000A2FB03235B096E4A126802FB03F36F4AA6
:10253000013B136000BFD2E07B79002B02D0012B5E
:102540000DD01BE03B68674AA2FB03235B09644A8A
:10255000126802FB03F3664A013B13600EE03B681E
:10256000C3F164035F4AA2FB03235B095C4A126860
:1025700002FB03F35E4A013B136000BFAFE07B79CF
:10258000002B02D0012B0DD01BE03B68554AA2FB6B
:1025900003235B09524A126802FB03F3554A013BCD
:1025A00013600EE03B68C3F164034E4AA2FB0323B1
:1025B0005B094B4A126802FB03F34E4A013B13606E
:1025C00000BF8CE07B79002B02D0012B0DD01BE0EB
:1025D0003B68444AA2FB03235B09414A126802FBA1
:1025E00003F3454A013B13600EE03B68C3F164030B
:1025F0003C4AA2FB03235B09394A126802FB03F33E
:102600003D4A013B136000BF69E07B79002B02D09B
:10261000012B0DD01BE03B68324AA2FB03235B0970
:102620002F4A126802FB03F3344A013B13600EE0A9
:102630003B68C3F164032B4AA2FB03235B09284ACE
:10264000126802FB03F32D4A013B136000BF46E012
:102650007B79002B02D0012B0DD01BE03B68214A77
:10266000A2FB03235B091E4A126802FB03F3244A00
:10267000013B13600EE03B68C3F16403194AA2FBFF
:1026800003235B09164A126802FB03F31C4A013B51
:10269000136000BF23E07B79002B02D0012B0DD00B
:1026A0001BE03B680F4AA2FB03235B090C4A12683C
:1026B00002FB03F3134A013B13600EE03B68C3F1D6
:1026C0006403084AA2FB03235B09054A126802FB64
:1026D00003F30C4A013B136000BF00E000BF4EE172
:1026E000FC0000201F85EB51588002405C800240B6
:1026F000988002409C800240D8800240DC800240EA
:10270000188102401C810240BB79072B00F2358101
:1027100001A252F823F000BF392700007F270000F4
:10272000C52700000B280000512800008928000060
:10273000C1280000432900007B79002B02D0012B27
:102740000DD01BE03B68924AA2FB03235B09914A30
:10275000126802FB03F3904A013B13600EE03B68F2
:10276000C3F164038A4AA2FB03235B09894A126806
:1027700002FB03F3884A013B136000BFFEE07B7954
:10278000002B02D0012B0DD01BE03B68804AA2FB3E
:1027900003235B097F4A126802FB03F37F4A013B74
:1027A00013600EE03B68C3F16403794AA2FB032384
:1027B0005B09784A126802FB03F3784A013B136015
:1027C00000BFDBE07B79002B02D0012B0DD01BE09A
:1027D0003B686F4AA2FB03235B096E4A126802FB47
:1027E00003F36F4A013B13600EE03B68C3F16403DF
:1027F000674AA2FB03235B09664A126802FB03F3E4
:10280000674A013B136000BFB8E07B79002B02D020
:10281000012B0DD01BE03B685D4AA2FB03235B0943
:102820005C4A126802FB03F35E4A013B13600EE050
:102830003B68C3F16403564AA2FB03235B09554A74
:10284000126802FB03F3574A013B136000BF95E097
:102850007B79002B02D0012B0DD014E03B684C4A51
:10286000A2FB03235B094B4A126802FB03F34E4AA7
:10287000013B136007E040F6C413FB604A4AFB6863
:10288000013B136000BF79E07B79002B02D0012B64
:102890000DD014E03B683E4AA2FB03235B093D4A8E
:1028A000126802FB03F3414A013B136007E040F664
:1028B000C413FB603D4AFB68013B136000BF5DE051
:1028C0007B79002B02D0012B0DD039E03B68304AD8
:1028D000A2FB03235B092F4A126802FB03F3344A6D
:1028E000013B13602CE03B68C3F16403184600F021
:1028F000B9FC25A3D3E9002300F0DEF902460B461C
:1029000014461D46234B1B68184600F0ABFC0246DC
:102910000B462046294600F0CFF902460B461046EA
:1029200019464FF00002234B00F012FB02460B4603
:102930001F4C1046194600F019FD0346236000BFE6
:102940001CE07B79002B02D0012B0DD014E03B68FA
:102950000F4AA2FB03235B090E4A126802FB03F332
:10296000154A013B136007E040F6C413FB60124AAE
:10297000FB68013B136000BF00E000BF00BF00BF69
:102980001037BD46B0BD00BF7B14AE47E17A843F2F
:102990001F85EB51FC000020589002405C900240E3
:1029A000989002409C900240D8900240DC900240F7
:1029B000189102400000F03F1C91024080B483B0A7
:1029C00000AF03460A46FB711346BB71FB79002B2F
:1029D00002D0012B5DD0BCE0BB79002B02D0BB79CB
:1029E000012B10D15D4B1B685C4A43F0010313605F
:1029F0005B4B1B68BA79012101FA02F21146584A71
:102A00000B43136044E0BB79022B02D0BB79032B4C
:102A100010D1544B1B68534A43F001031360504BD1
:102A20001B68BA79012101FA02F211464C4A0B43A4
:102A300013602DE0BB79042B02D0BB79052B10D19C
:102A4000494B1B68484A43F001031360444B1B6821
:102A5000BA79012101FA02F21146414A0B4313608F
:102A600016E0BB79062B02D0BB79072B6ED13F4B0A
:102A70001B683E4A43F001031360394B1B68BA7967
:102A8000012101FA02F21146354A0B4313605DE061
:102A90005CE0BB79002B02D0BB79012B10D1344B09
:102AA0001B68334A43F001031360324B1B68BA7949
:102AB000012101FA02F211462E4A0B43136044E051
:102AC000BB79022B02D0BB79032B10D12A4B1B6898
:102AD000294A43F001031360264B1B68BA79012190
:102AE00001FA02F21146234A0B4313602DE0BB7931
:102AF000042B02D0BB79052B10D1204B1B681F4A39
:102B000043F0010313601B4B1B68BA79012101FAE2
:102B100002F21146174A0B43136016E0BB79062BED
:102B200002D0BB79072B13D1154B1B68144A43F015
:102B3000010313600F4B1B68BA79012101FA02F2FD
:102B400011460C4A0B43136002E001E000BF00E0B5
:102B500000BF00BF0C37BD4680BC704740800240BC
:102B60000880024080800240C08002400081024014
:102B7000409002400890024080900240C090024085
:102B80000091024080B584B000AF1A4A1A4BD31AA4
:102B90003B60194BFB60194BBB6000237B6000233B
:102BA0007B600AE0BA68531CBB60FB68591CF96083
:102BB00012781A707B6801337B607A683B689A42AE
:102BC000F0D30F4A0F4BD31A3B600E4BFB60002330
:102BD0007B6007E0FB685A1CFA6000221A707B6871
:102BE00001337B607A683B689A42F3D3FEF792F92F
:102BF000FEE700BF0000002000000020C0330000FE
:102C0000000100200000002080B400AFFEE780B586
:102C100000AFFFF7B7FF00BF80BD00BF80B400AFBB
:102C200062B600BFBD4680BC704780B500AF084BA0
:102C300000221A60074B43F67F621A60044B07229A
:102C40001A60054B00221A60FFF7E8FF00BF80BD45
:102C500010E000E014E000E018E000E080B500AF14
:102C600000F002F800BF80BD80B500AFFEF77EFB2C
:102C700000BF80BD80B400AF00BFBD4680BC7047C0
:102C800080B483B000AF0346FB7100BF0C37BD4674
:102C900080BC704780B483B000AF7860CD23184605
:102CA0000C37BD4680BC704780B500AF4120FFF7B0
:102CB000E7FF00BF80BD000070402DE9FFC0A0E32A
:102CC00007CC8CE3214A1CE0235A1C100C00341161
:102CD0000C0035117500000B054084E0036021E015
:102CE0008C1AC1E18C3AC3E1015690E1035692116E
:102CF000011681E3013683E31D00000A90C28EE0D5
:102D00000050A0E391E2A5E0022106E290E3A5E0F5
:102D10000060A0E39153A6E000003CE301E08E13C5
:102D2000FF4044E2020C56E3034CC4E20200002AD6
:102D30008EE0B0E10550B5E00660A6E0861582E1C0
:102D4000A51A81E18505A0E1AE0A80E18EE5A0E14A
:102D5000FDC054E2070C5C831100008A02015EE3AF
:102D6000A0E0B0010000B0E2041AA1E07040BDE8AC
:102D70001EFF2FE1026106E2011086E1020080E100
:102D8000031021E0AC4054E00C5074C0041A81C11F
:102D90007040BDC81EFF2FC1011681E300E0A0E313
:102DA000014054E25D0000CA360074E30000A0D385
:102DB000021101D27040BDD81EFF2FD1004064E245
:102DC000204054E21A0000AA0C4094E20C0000CA11
:102DD000144084E2205064E21035A0E13004A0E108
:102DE000110580E1022101E20211C1E3A30F90E08D
:102DF0003114A2E083E09EE1A30FC0017040BDE862
:102E00001EFF2FE10C4064E2205064E21034A0E188
:102E10003005A0E1110480E1021101E2A30F90E06E
:102E20000010A1E283E09EE1A30FC0017040BDE865
:102E30001EFF2FE1205064E210E58EE13034A0E166
:102E4000113583E13104A0E1021101E23104C0E156
:102E5000A30F80E083E09EE1A30FC0017040BDE8B6
:102E60001EFF2FE1000034E30800001A026101E2B6
:102E70008000B0E10110A1E0010611E3014044022D
:102E8000FAFFFF0A061081E1000035E31EFF2F1153
:102E9000026103E28220B0E10330A3E0010613E304
:102EA00001504502FAFFFF0A063083E11EFF2FE1C1
:102EB0000C0034E1235A0CE00C0035110700000A25
:102EC000816090E183609211E5FFFF1A031021E019
:102ED000021101E20000A0E37040BDE81EFF2FE1F7
:102EE000816090E10200A0010310A00183609211B3
:102EF0001000000A0C0034E10100001A016690E1A4
:102F00000C00001A0C0035E10300001A036692E180
:102F10000200A0110310A0110600001A031021E006
:102F2000021101E27F1481E30F1681E30000A0E3A8
:102F30007040BDE81EFF2FE17F1481E33E1781E35F
:102F40007040BDE81EFF2FE1021121E2000000EAFF
:102F5000023123E230402DE98140A0E18350A0E11D
:102F6000050034E10200300100C0941102C0951147
:102F7000C4CAF011C5CAF0118C00000AA44AA0E12D
:102F8000A55A74E0005065B2060000DA054084E0FE
:102F9000022020E0033021E0000022E0011023E0C5
:102FA000022020E0033021E0360055E33040BD88A8
:102FB0001EFF2F81020111E30116A0E101C6A0E36B
:102FC00021168CE10100000A000070E20010E1E22D
:102FD000020113E30336A0E123368CE10100000A6D
:102FE000002072E20030E3E2050034E16900000AEB
:102FF000014044E220E075E2050000BA12CEA0E1F3
:10300000320590E00010A1E2130E90E05315B1E0FC
:10301000060000EA205045E220E08EE2010052E383
:1030200013CEA0E102C08C23530590E0C31FB1E092
:10303000025101E20200005A00C07CE20000F0E20E
:103040000010E1E2010651E30F00003A020651E3ED
:103050000600003AA110B0E16000B0E16CC0A0E150
:10306000014084E2842AA0E1010572E36B00002A9A
:1030700002015CE3A0C0B0010000B0E2041AA1E0CC
:10308000051081E13040BDE81EFF2FE18CC0B0E1AA
:103090000000B0E00110A1E0014054E2010651231C
:1030A000F2FFFF2A000031E31430A0133430A003F4
:1030B0000010A0010000A0030120A0E1010852E3DC
:1030C0002228A02110304322010C52E32224A02107
:1030D00008304322100052E32222A0210430432270
:1030E000040052E302304322A2304330A23143E0D5
:1030F000202053E2070000AA0C2092E2040000DA2C
:1031000014C082E20C2062E2110CA0E13112A0E1B5
:10311000040000EA142082E220C062D21112A0E171
:10312000301C81D11002A0D1034054E0041A81A0C8
:10313000051081A13040BDA81EFF2FA10440E0E191
:103140001F4054E20F0000AA0C4094E2060000CA9F
:10315000144084E2202064E23004A0E1110280E106
:10316000311485E13040BDE81EFF2FE10C4064E2E0
:10317000202064E23002A0E1110480E10510A0E10A
:103180003040BDE81EFF2FE13104A0E10510A0E1B1
:103190003040BDE81EFF2FE1000034E3013623E29A
:1031A0000116210201408402015045128FFFFFEAFF
:1031B000C4CAF0E1C5CAF0111D00000A050034E1DF
:1031C000020030010400000A00C094E10310A001D5
:1031D0000200A0013040BDE81EFF2FE1030031E1F5
:1031E0000010A0130000A0133040BD181EFF2F11C7
:1031F000A4CAB0E10400001A8000B0E10110B1E0FF
:10320000021181233040BDE81EFF2FE1014594E209
:10321000011681323040BD381EFF2F31025101E2CC
:103220007F1485E30F1681E30000A0E33040BDE882
:103230001EFF2FE1C4CAF0E10310A0110200A0118B
:10324000C5CAF0010130A0110020A011014690E193
:103250000356920103003101021781133040BDE88B
:103260001EFF2FE1000030E30010A0031EFF2F011E
:1032700030402DE9014BA0E3324084E20050A0E34E
:103280000010A0E386FFFFEA000030E30010A00377
:103290001EFF2F0130402DE9014BA0E3324084E2B4
:1032A000025110E2000060420010A0E37CFFFFEA40
:1032B0008020B0E1C211A0E16110A0E1020EA0E106
:1032C000FF341212FF0433130E1321121EFF2F11AD
:1032D000FF24D2E31EFF2F01FF0433E30217810313
:1032E0001EFF2F0130402DE90E4DA0E3025101E2F7
:1032F0000211C1E36AFFFFEA012090E11EFF2F01E6
:1033000030402DE90050A0E3060000EA012090E1E2
:103310001EFF2F0130402DE9025111E20100005A39
:10332000000070E20010E1E2014BA0E3324084E2D1
:1033300021CBB0E142FFFF0A0320A0E3ACC1B0E122
:1033400003208212ACC1B0E103208212AC2182E0E2
:10335000203062E210C3A0E13002A0E1110380E15D
:103360003112A0E1024084E035FFFFEA8120B0E1A4
:103370000A00002A022692E20A00002A0700005AE8
:103380003E3EE0E3C22A53E00800004A8135A0E156
:10339000023183E3A03A83E13302A0E11EFF2FE173
:1033A0000000A0E31EFF2FE1010690E10100001ADA
:1033B0000000E0E31EFF2FE10000A0E31EFF2FE16D
:00000001FF
