:10000000008000209F2A0000992A0000992A000001
:10001000992A0000992A0000992A00000000000097
:10002000000000000000000000000000992A00000D
:10003000992A000000000000992A0000ED2A000023
:10004000992A0000992A0000992A0000992A0000A4
:10005000992A0000992A0000992A0000992A000094
:10006000992A0000992A0000992A0000992A000084
:10007000992A0000992A0000992A0000992A000074
:10008000992A0000992A0000992A0000992A000064
:10009000992A0000992A0000992A0000992A000054
:1000A000992A0000992A0000992A00000000000007
:1000B000992A0000992A0000992A000000000000F7
:1000C00000000000992A0000992A0000992A0000E7
:1000D000992A0000992A0000992A0000992A000014
:1000E000992A00000000000000000000992A00008A
:1000F000992A0000992A0000992A0000992A0000F4
:10010000992A0000992A0000992A0000992A0000E3
:1001100000000000000000000000000000000000DF
:1001200000000000992A0000992A0000992A000086
:10013000992A0000992A0000992A0000992A0000B3
:1001400000000000000000000000000000000000AF
:10015000992A0000992A0000992A0000992A000093
:10016000000000000000000000000000000000008F
:10017000000000000000000000000000000000007F
:10018000000000000000000000000000000000006F
:10019000000000000000000000000000000000005F
:1001A000000000000000000000000000000000004F
:1001B000992A0000992A0000992A0000992A000033
:1001C000992A0000992A0000992A0000992A000023
:1001D000992A0000992A0000992A0000992A000013
:1001E000992A0000992A0000992A000000000000C6
:1001F00000000000000000000000000000000000FF
:1002000000000000000000000000000000000000EE
:1002100000000000000000000000000000000000DE
:1002200000000000000000000000000000000000CE
:1002300000000000000000000000000000000000BE
:1002400000000000000000000000000000000000AE
:100250000000000000000000992A0000992A000018
:10026000992A0000992A0000992A000080B485B0DC
:1002700000AF03460A46FB711346BB71FB79002BA6
:100280001FD1694B1B68FA79012101FA02F211466C
:10029000654A0B4313600123FB60644B644A1A6098
:1002A000644B1B68BA79012101FA02F21146614AD6
:1002B0000B431360604B00221A60604B00221A60EF
:1002C000ADE0FB79012B1FD1574B1B68FA79012157
:1002D00001FA02F21146544A0B4313600123FB60FA
:1002E000574B534A1A60574B1B68BA79012101FAE0
:1002F00002F21146534A0B431360534B00221A601B
:10030000524B00221A608AE0FB79022B1FD1464B28
:100310001B68FA79012101FA02F21146424A0B43A5
:1003200013600123FB604A4B414A1A60494B1B682A
:10033000BA79012101FA02F21146464A0B431360D1
:10034000454B00221A60454B00221A6067E0FB799A
:10035000032B1FD1344B1B68FA79012101FA02F2F9
:100360001146314A0B4313600123FB603C4B304A7A
:100370001A603C4B1B68BA79012101FA02F211465E
:10038000384A0B431360384B00221A60374B002267
:100390001A6044E0FB79042B1FD1234B1B68FA79C8
:1003A000012101FA02F211461F4A0B431360012397
:1003B000FB602F4B1E4A1A602E4B1B68BA79012135
:1003C00001FA02F211462B4A0B4313602A4B00221A
:1003D0001A602A4B00221A6021E0FB79052B1ED1FE
:1003E000114B1B68FA79012101FA02F211460E4AFB
:1003F0000B4313600123FB60214B0D4A1A60214B14
:100400001B68BA79012101FA02F211461D4A0B4319
:1004100013601D4B00221A601C4B00221A6000BFA3
:100420001437BD4680BC704708E60F4020450040A9
:100430004B434F4C24450040204400402845004099
:1004400020550040245500402054004028550040CD
:10045000206500402465004020640040286500407D
:10046000207500402475004020740040287500402D
:1004700020450240244502402044024028450240D5
:100480002055024024550240205402402855024085
:1004900080B483B000AF0346FB710B46BB711346BB
:1004A0007B71FB79002B4CD17B79022B32D0022B54
:1004B0003BDC002B02D0012B16D036E09F4B1B6893
:1004C000BA79012101FA02F2D24311469B4A0B404C
:1004D00013609B4B1B68BA79012101FA02F21146A5
:1004E000974A0B43136021E0944B1B68BA790121B2
:1004F00001FA02F2D2431146904A0B401360914B2D
:100500001B68BA79012101FA02F211468D4A0B43A8
:1005100013600BE0894B1B68BA79012101FA02F2E2
:100520001146864A0B43136000E000BF864B1B68F0
:10053000BA79012101FA02F21146834A0B43136092
:10054000AEE1FB79012B4CD17B79022B32D0022B0F
:100550003BDC002B02D0012B16D036E07B4B1B6816
:10056000BA79012101FA02F2D2431146774A0B40CF
:100570001360774B1B68BA79012101FA02F2114628
:10058000734A0B43136021E0704B1B68BA79012159
:1005900001FA02F2D24311466C4A0B4013606D4BD4
:1005A0001B68BA79012101FA02F21146694A0B432C
:1005B00013600BE0654B1B68BA79012101FA02F266
:1005C0001146624A0B43136000E000BF624B1B6898
:1005D000BA79012101FA02F211465F4A0B43136016
:1005E0005EE1FB79022B4CD17B79022B32D0022BBE
:1005F0003BDC002B02D0012B16D036E0574B1B689A
:10060000BA79012101FA02F2D2431146534A0B4052
:100610001360534B1B68BA79012101FA02F21146AB
:100620004F4A0B43136021E04C4B1B68BA79012100
:1006300001FA02F2D2431146484A0B401360494B7B
:100640001B68BA79012101FA02F21146454A0B43AF
:1006500013600BE0414B1B68BA79012101FA02F2E9
:1006600011463E4A0B43136000E000BF3E4B1B683F
:10067000BA79012101FA02F211463B4A0B43136099
:100680000EE1FB79032B4CD17B79022B32D0022B6C
:100690003BDC002B02D0012B16D036E0334B1B681D
:1006A000BA79012101FA02F2D24311462F4A0B40D6
:1006B00013602F4B1B68BA79012101FA02F211462F
:1006C0002B4A0B43136021E0284B1B68BA790121A8
:1006D00001FA02F2D2431146244A0B401360254B23
:1006E0001B68BA79012101FA02F21146214A0B4333
:1006F00013600BE01D4B1B68BA79012101FA02F26D
:1007000011461A4A0B43136000E000BF1A4B1B68E6
:10071000BA79012101FA02F21146174A0B4313601C
:10072000BEE0FB79042B6CD17B79022B52D0022BDB
:100730005BDC002B22D0012B36D056E00044004079
:10074000104500400C4500401C450040005400404E
:10075000105500400C5500401C55004000640040FE
:10076000106500400C6500401C65004000740040AE
:10077000107500400C7500401C7500404B4B1B6809
:10078000BA79012101FA02F2D2431146474A0B40DD
:100790001360474B1B68BA79012101FA02F2114636
:1007A000434A0B43136021E0404B1B68BA79012197
:1007B00001FA02F2D24311463C4A0B4013603D4B12
:1007C0001B68BA79012101FA02F21146394A0B433A
:1007D00013600BE0354B1B68BA79012101FA02F274
:1007E0001146324A0B43136000E000BF324B1B68D6
:1007F000BA79012101FA02F211462F4A0B43136024
:100800004EE0FB79052B4BD17B79022B32D0022BAA
:100810003BDC002B02D0012B16D036E0274B1B68A7
:10082000BA79012101FA02F2D2431146234A0B4060
:100830001360234B1B68BA79012101FA02F21146B9
:100840001F4A0B43136021E01C4B1B68BA7901213E
:1008500001FA02F2D2431146184A0B401360194BB9
:100860001B68BA79012101FA02F21146154A0B43BD
:1008700013600BE0114B1B68BA79012101FA02F2F7
:1008800011460E4A0B43136000E000BF0E4B1B687D
:10089000BA79012101FA02F211460B4A0B431360A7
:1008A00000BF0C37BD4680BC704700BF004402400B
:1008B000104502400C4502401C45024000540240D5
:1008C000105502400C5502401C55024080B483B0C4
:1008D00000AF0346FB710B46BB7113467B71FB797E
:1008E000002B1CD17B79002B0DD0012B40F0B38065
:1008F000614B1B68BA79012101FA02F211465E4A86
:100900000B431360B2E05C4B1B68BA79012101FA1A
:1009100002F2D2431146584A0B401360A6E0FB791D
:10092000012B1CD17B79002B0DD0012B40F0958041
:10093000524B1B68BA79012101FA02F211464F4A63
:100940000B43136092E04D4B1B68BA79012101FA09
:1009500002F2D2431146494A0B40136086E0FB790C
:10096000022B1BD17B79002B0CD0012B77D1444B70
:100970001B68BA79012101FA02F21146404A0B4381
:10098000136073E03E4B1B68BA79012101FA02F251
:10099000D24311463A4A0B40136067E0FB79032BC0
:1009A0001BD17B79002B0CD0012B5AD1354B1B6806
:1009B000BA79012101FA02F21146324A0B4313605F
:1009C00054E0304B1B68BA79012101FA02F2D2439C
:1009D00011462C4A0B40136048E0FB79042B1BD1D5
:1009E0007B79002B0CD0012B3DD1274B1B68BA79AA
:1009F000012101FA02F21146234A0B43136035E04C
:100A0000214B1B68BA79012101FA02F2D243114647
:100A10001D4A0B40136029E0FB79052B26D17B7919
:100A2000002B0CD0012B20D1184B1B68BA79012167
:100A300001FA02F21146154A0B43136016E0134BFC
:100A40001B68BA79012101FA02F2D24311460F4A1A
:100A50000B4013600AE000BF08E000BF06E000BFE3
:100A600004E000BF02E000BF00E000BF00BF0C37A1
:100A7000BD4680BC704700BFFC430040FC530040B3
:100A8000FC630040FC730040FC430240FC53024006
:100A900080B485B000AF03460A46FB711346BB71B4
:100AA0000023FB73FB79002B0AD12B4B1A68BB790F
:100AB00022FA03F3DBB203F00103FB73FB7B46E096
:100AC000FB79012B0AD1254B1A68BB7922FA03F373
:100AD000DBB203F00103FB73FB7B38E0FB79022BF5
:100AE0000AD11F4B1A68BB7922FA03F3DBB203F079
:100AF0000103FB73FB7B2AE0FB79032B0AD1194B23
:100B00001A68BB7922FA03F3DBB203F00103FB732B
:100B1000FB7B1CE0FB79042B0AD1134B1A68BB79D1
:100B200022FA03F3DBB203F00103FB73FB7B0EE05D
:100B3000FB79052B0AD10D4B1A68BB7922FA03F316
:100B4000DBB203F00103FB73FB7B00E0FB7B184689
:100B50001437BD4680BC7047FC430040FC53004046
:100B6000FC630040FC730040FC430240FC53024025
:100B700080B483B000AF03460A46FB711346BB71D5
:100B8000FB79002B20D1BB79022B06D0022B16DC7F
:100B9000002B06D0012B0BD011E0674BFF221A600F
:100BA0000EE0654B00221A60644BFF221A6007E0DA
:100BB000614B00221A60624BFF221A6000E000BF06
:100BC000604BFF221A60B2E0FB79012B20D1BB7988
:100BD000022B06D0022B16DC002B06D0012B0BD0EB
:100BE00011E0594BFF221A600EE0574B00221A60A9
:100BF000564BFF221A6007E0534B00221A60544BF9
:100C0000FF221A6000E000BF524BFF221A608EE004
:100C1000FB79022B20D1BB79022B06D0022B16DCEC
:100C2000002B06D0012B0BD011E04B4BFF221A609A
:100C30000EE0494B00221A60484BFF221A6007E081
:100C4000454B00221A60464BFF221A6000E000BFAD
:100C5000444BFF221A606AE0FB79032B20D1BB7959
:100C6000022B06D0022B16DC002B06D0012B0BD05A
:100C700011E03D4BFF221A600EE03B4B00221A6050
:100C80003A4BFF221A6007E0374B00221A60384BBC
:100C9000FF221A6000E000BF364BFF221A6046E0D8
:100CA000FB79042B20D1BB79022B06D0022B16DC5A
:100CB000002B06D0012B0BD011E02F4BFF221A6026
:100CC0000EE02D4B00221A602C4BFF221A6007E029
:100CD000294B00221A602A4BFF221A6000E000BF55
:100CE000284BFF221A6022E0FB79052B1FD1BB792C
:100CF000022B06D0022B16DC002B06D0012B0BD0CA
:100D000011E0214BFF221A600EE01F4B00221A60F7
:100D10001E4BFF221A6007E01B4B00221A601C4B7F
:100D2000FF221A6000E000BF1A4BFF221A6000BFCA
:100D30000C37BD4680BC7047004400401045004061
:100D40000C4500401C450040005400401055004038
:100D50000C5500401C5500400064004010650040E8
:100D60000C6500401C650040007400401075004098
:100D70000C7500401C7500400044024010450240C4
:100D80000C4502401C4502400054024010550240F0
:100D90000C5502401C55024080B483B000AF03469E
:100DA0000A46FB711346BB71FB79002B0CD1BB7952
:100DB000002B05D0FF2B57D1344ABB79136060E07C
:100DC000324ABB7913605CE0FB79012B0CD1BB7913
:100DD000002B05D0FF2B49D12D4ABB79136050E081
:100DE0002B4ABB7913604CE0FB79022B0CD1BB7909
:100DF000002B05D0FF2B3BD1264ABB79136040E086
:100E0000244ABB7913603CE0FB79032B0CD1BB79FE
:100E1000002B05D0FF2B2DD11F4ABB79136030E08A
:100E20001D4ABB7913602CE0FB79042B0CD1BB79F4
:100E3000002B05D0FF2B1FD1184ABB79136020E08F
:100E4000164ABB7913601CE0FB79052B16D1BB79E0
:100E5000002B05D0FF2B13D1114ABB79136010E092
:100E60000F4ABB7913600CE000BF0AE000BF08E046
:100E700000BF06E000BF04E000BF02E000BF00E0EA
:100E800000BF00BF0C37BD4680BC7047FC4300402C
:100E9000FC530040FC630040FC730040FC430240F4
:100EA000FC53024080B500AF03210520FFF7DEF9B7
:100EB000074BEC221A70022203210520FFF7E8FA03
:100EC000002203210520FFF701FD00BF80BD00BF08
:100ED0000000002080B500AF0D4B1B78AB2B0AD073
:100EE000EC2B11D10A4BAB221A70012203210520F1
:100EF000FFF7ECFC09E0064BEC221A7000220321FC
:100F00000520FFF7E3FC00E000BF00BF80BD00BF8D
:100F10000000002080B500AF00F098F800F008F95C
:100F2000FCE780B500AF0621012000F05BF9052049
:100F300000F032FA0621012000F048FA06220321CF
:100F4000012000F0A7FD06220121012000F07CFE17
:100F5000322305220321012001F022F84B23012234
:100F60000321012001F0C6F806220321012001F02F
:100F70007FFC02210020FFF779F903210020FFF711
:100F800075F9022202210020FFF782FA02220321D2
:100F90000020FFF77DFA002202210020FFF796FCD7
:100FA000002203210020FFF791FC00F01AF800BF97
:100FB00080BD80B400AF00BFBD4680BC704780B527
:100FC00000AF06220321012001F052FC00BF80BDCA
:100FD00080B500AF06220321012000F05BFD00BFB9
:100FE00080BD80B500AF012202210020FFF76EFC1A
:100FF000002203210020FFF769FC00BF80BD80B5FF
:1010000082B000AF0346FB71FB79002B06D1192398
:1010100001220621012001F06DF812E0FB79012B7D
:1010200006D1322301220621012001F063F808E0F5
:10103000FB79022B05D14B2301220621012001F06F
:1010400059F800BF0837BD4680BD000080B582B0AA
:1010500000AF334B00221A7000237B6024E031493B
:101060007A6813465B001344DB000B4403F108016C
:101070004FF000024FF00003C1E9002329497A68CC
:1010800013465B001344DB000B4400221A60254921
:101090007A6813465B001344DB000B4410330022D4
:1010A0001A607B6801337B607B68092BD7D90023EA
:1010B0007B601C497A6813465B001344DB000B44D9
:1010C0004FF47A721A6017497A6813465B0013442A
:1010D000DB000B441033144A1A607B6801337B60D9
:1010E00010497A6813465B001344DB000B4401226D
:1010F0001A600C497A6813465B001344DB000B440A
:1011000010330A4A1A607B6801337B60FFF7CAFE1E
:10111000FFF707FF01F0D1FC00BF0837BD4680BDD7
:10112000F800002008000020D50E0000B30F0000DA
:101130002DE9B04382B000AF00237B60204B1B78C9
:10114000002B37D02DE07A6813465B001344DB0098
:101150001C4A13443B603B681B69002B1ED03B6854
:10116000D3E9022312F1010843F100093B68C3E906
:1011700002893B68D3E902233968096800200C46DC
:101180000546A242AB4109D33B681B6998473968C1
:101190004FF000024FF00003C1E902237B680133E6
:1011A0007B607B68092BCED9054B1B78013BDAB2FB
:1011B000034B1A7000BF0837BD46BDE8B08300BFBF
:1011C000F80000200800002080B400AF044B1B781A
:1011D0000133DAB2024B1A7000BFBD4680BC7047C3
:1011E000F800002080B483B000AF03460A46FB71CC
:1011F0001346BB71664B1B68FA79012101FA02F2B2
:101200001146634A0B431360FB79002B02D0012B7C
:101210005CD0B7E0BB79072B56D801A252F823F077
:10122000411200004F1200005D1200006B1200001E
:10123000791200008712000095120000AF12000022
:10124000544B1B68534A43F0020313603DE0514B7B
:101250001B68504A43F00203136036E04D4B1B6895
:101260004C4A43F0020313602FE04A4B1B68494A83
:1012700043F00203136028E0464B1B68454A43F0E5
:101280001003136021E0434B1B68424A43F01003F4
:1012900013601AE03F4B1B683E4A43F0080313609B
:1012A0003C4B1B683B4A43F0040313600DE0394B91
:1012B0001B68384A43F008031360364B1B68354AF5
:1012C00043F00403136000E000BF5BE0BB79072B31
:1012D00056D801A252F823F0F912000007130000BB
:1012E000151300002F1300004913000057130000CE
:1012F0006513000073130000264B1B68254A43F05A
:10130000080313603DE0234B1B68224A43F00803A7
:10131000136036E01F4B1B681E4A43F00103136045
:101320001C4B1B681B4A43F01003136029E0194B48
:101330001B68184A43F001031360164B1B68154ADB
:1013400043F0100313601CE0124B1B68114A43F07A
:101350002003136015E00F4B1B680E4A43F0200377
:1013600013600EE00B4B1B680A4A43F02003136026
:1013700007E0084B1B68074A43F02003136000E0B6
:1013800000BF00BF00BF0C37BD4680BC704700BF28
:1013900040E60F4008E60F4080B483B000AF03463C
:1013A000FB71094B1B68084A43F480131360064B1A
:1013B0001B68FA7952041146034A0B43136000BFBD
:1013C0000C37BD4680BC704760E00F4080B483B0EE
:1013D00000AF03460A46FB711346BB71FB79002B35
:1013E00003D0012B00F09E8141E3BB79072B00F273
:1013F0003D8301A252F823F0191400005D1400008F
:10140000A1140000E5140000291500006D1500006E
:10141000B11500009D160000874B884A1A60884B62
:101420001B68874A43F040031360864B1B68854A5C
:1014300043F480031360844B1B68834A43F04003EA
:101440001360824B1B68814A43F040031360804B5A
:101450001B687F4A43F04003136062E1764B774A92
:101460001A60774B1B68764A43F080031360754B14
:101470001B68744A43F080631360734B1B68724AA5
:1014800043F080031360714B1B68704A43F0800384
:1014900013606F4B1B686E4A43F08003136040E19A
:1014A000654B664A1A60664B1B68654A43F0100339
:1014B0001360644B1B68634A43F480431360624BC0
:1014C0001B68614A43F010031360604B1B685F4A5E
:1014D00043F0100313605E4B1B685D4A43F010033A
:1014E00013601EE1544B554A1A60554B1B68544A11
:1014F00043F020031360534B1B68524A43F48003AC
:101500001360514B1B68504A43F0200313604F4B4C
:101510001B684E4A43F0200313604D4B1B684C4A36
:1015200043F020031360FCE04A4B444A1A604A4BE4
:101530001B68494A43F010031360484B1B68474A35
:1015400043F480231360464B1B68454A43F0100365
:101550001360444B1B68434A43F010031360424B33
:101560001B68414A43F010031360DAE0394B334AF9
:101570001A60394B1B68384A43F020031360374B1D
:101580001B68364A43F480031360354B1B68344AAA
:1015900043F020031360334B1B68324A43F02003AF
:1015A0001360314B1B68304A43F020031360B8E0EE
:1015B0002E4B224A1A602E4B1B682D4A43F0010322
:1015C00013602C4B1B682B4A43F0040313602A4B17
:1015D0001B68294A43F001031360284B1B68274A04
:1015E00043F001031360264B1B68254A43F00103B7
:1015F0001360244B114A1A60234B1B68224A43F0A4
:1016000010031360214B1B68204A43F4804313608E
:101610001F4B1B681E4A43F0100313601D4B1B68D1
:101620001C4A43F0100313601B4B1B681A4A43F01B
:101630001003136075E000BF205500404B434F4C32
:10164000205400402C5500402455004000540040D8
:101650001C55004020450240204402402C450240D9
:1016600024450240004402401C45024020750040D1
:10167000207400402C750040247500400074004028
:101680001C75004020650040206400402C6500402F
:1016900024650040006400401C650040924B934A62
:1016A0001A60934B1B68924A43F002031360914BFC
:1016B0001B68904A43F0400313608F4B1B688E4AAF
:1016C00043F0020313608D4B1B688C4A43F0020306
:1016D00013608B4B1B688A4A43F002031360894BEB
:1016E000824A1A60884B1B68874A43F020031360C4
:1016F000864B1B68854A43F480031360844B1B6848
:10170000834A43F020031360824B1B68814A43F0F5
:1017100020031360804B1B687F4A43F02003136053
:1017200000BFA3E1BB79072B00F29E8101A252F812
:1017300023F000BF5517000099170000DD170000C7
:10174000631800004D19000091190000D519000020
:10175000251A0000644B654A1A60654B1B68644A91
:1017600043F001031360634B1B68624A43F00503B7
:101770001360614B1B68604A43F0010313605F4BC9
:101780001B685E4A43F0010313605D4B1B685C4AB3
:1017900043F00103136068E1534B544A1A60544B01
:1017A0001B68534A43F002031360524B1B68514AB3
:1017B00043F050031360504B1B684F4A43F0020341
:1017C00013604E4B1B684D4A43F0020313604C4BB1
:1017D0001B684B4A43F00203136046E14F4B434AF8
:1017E0001A604F4B1B684E4A43F0400313604D4B49
:1017F0001B684C4A43F0A06313604B4B1B684A4A7A
:1018000043F040031360494B1B68484A43F04003D0
:101810001360474B1B68464A43F040031360454B37
:10182000324A1A60444B1B68434A43F0100313606A
:10183000424B1B68414A43F4A0231360404B1B6892
:101840003F4A43F0100313603E4B1B683D4A43F090
:10185000100313603C4B1B683B4A43F010031360BA
:1018600003E12E4B214A1A602D4B1B682C4A43F092
:10187000800313602B4B1B682A4A43F0A04313607C
:10188000294B1B68284A43F080031360274B1B68D1
:10189000264A43F080031360254B1B68244A43F01B
:1018A00080031360234B114A1A60234B1B68224AA2
:1018B00043F020031360214B1B68204A43F4A0032C
:1018C00013601F4B1B681E4A43F0200313601D4B1F
:1018D0001B681C4A43F0200313601B4B1B681A4A09
:1018E00043F020031360C0E0207500404B434F4C91
:1018F000207400402C7500402475004000740040A6
:101900001C75004020650040206400402C650040AC
:1019100024650040006400401C65004020450040F4
:10192000204400402C450040244500400044004035
:101930001C45004020450240204402402C45024006
:1019400024450240004402401C4502404A4B4B4A99
:101950001A604B4B1B684A4A43F001031360494B22
:101960001B68484A43F005031360474B1B68464A0F
:1019700043F001031360454B1B68444A43F00103E5
:101980001360434B1B68424A43F0010313606CE051
:10199000394B3A4A1A603A4B1B68394A43F0020302
:1019A0001360384B1B68374A43F050031360364BC3
:1019B0001B68354A43F002031360344B1B68334AFB
:1019C00043F002031360324B1B68314A43F00203B9
:1019D00013604AE0284B294A1A602B4B1B682A4A9D
:1019E00043F004031360294B1B68284A43F00403A7
:1019F0001360234B1B68224A43F004031360214BFE
:101A00001B68204A23F4706313601E4B1B681D4A39
:101A100043F4A06313601E4B1B681D4A43F004038C
:101A2000136022E0144B154A1A60154B1B68144AC8
:101A300043F008031360134B1B68124A43F4A0439E
:101A40001360114B1B68104A43F0080313600F4BDF
:101A50001B680E4A43F0080313600D4B1B680C4AC9
:101A600043F00803136000E000BF00E000BF00BFC8
:101A70000C37BD4680BC7047205502404B434F4C4D
:101A8000205402402C55024024550240005402408C
:101A90001C55024080B483B000AF0346FB710B4677
:101AA000BB7113467B71FB79002B02D0012B59D0FF
:101AB000B0E0BB79032B53D801A252F823F000BF4A
:101AC000D11A0000F51A0000191B00003D1B000090
:101AD000534B1B68524A23F001031360514B1B68A0
:101AE0007A79012101FA02F2D24311464D4A0B40A4
:101AF000136036E04C4B1B684B4A23F00103136024
:101B0000484B1B687A79012101FA02F2D24311464F
:101B1000444A0B40136024E0444B1B68434A23F0C3
:101B2000010313603F4B1B687A79012101FA02F22D
:101B3000D24311463B4A0B40136012E03C4B1B68FA
:101B40003B4A23F001031360364B1B687A7901216D
:101B500001FA02F2D2431146324A0B40136000E010
:101B600000BF57E0BB79032B52D801A252F823F0F3
:101B7000811B0000A51B0000C91B0000ED1B00001D
:101B80002C4B1B682B4A23F0010313602A4B1B6864
:101B90007A79012101FA02F2D2431146264A0B401A
:101BA000136036E0254B1B68244A23F001031360C1
:101BB000214B1B687A79012101FA02F2D2431146C6
:101BC0001D4A0B40136024E01D4B1B681C4A23F088
:101BD00001031360184B1B687A79012101FA02F2A4
:101BE000D2431146144A0B40136012E0154B1B6898
:101BF000144A23F0010313600F4B1B687A7901210B
:101C000001FA02F2D24311460B4A0B40136000E086
:101C100000BF00BF00BF0C37BD4680BC704700BF8F
:101C2000408002400880024080800240C080024024
:101C300000810240409002400890024080900240A3
:101C4000C09002400091024080B483B000AF0346D0
:101C5000FB710B46BB7113467B71FB79002B03D0E4
:101C6000012B00F0C28091E17B79072B00F28D817E
:101C700001A252F823F000BF991C0000C31C000011
:101C8000ED1C0000171D0000411D00006B1D000031
:101C9000951D0000BF1D0000BB79002B02D0012B59
:101CA00007D00DE0914B1B68904A43F0020313608C
:101CB00006E08E4B1B688D4A23F00203136000BFC1
:101CC00092E0BB79002B02D0012B07D00DE0874BAF
:101CD0001B68864A43F00203136006E0834B1B68CF
:101CE000824A23F00203136000BF7DE0BB79002B22
:101CF00002D0012B07D00DE07D4B1B687C4A43F0DE
:101D00000203136006E07A4B1B68794A23F0020352
:101D1000136000BF68E0BB79002B02D0012B07D015
:101D20000DE0734B1B68724A43F00203136006E038
:101D30006F4B1B686E4A23F00203136000BF53E031
:101D4000BB79002B02D0012B07D00DE0694B1B683B
:101D5000684A43F00203136006E0664B1B68654A5D
:101D600023F00203136000BF3EE0BB79002B02D0DA
:101D7000012B07D00DE05F4B1B685E4A43F0020366
:101D8000136006E05B4B1B685A4A23F002031360A2
:101D900000BF29E0BB79002B02D0012B07D00DE05A
:101DA000554B1B68544A43F00203136006E0524B44
:101DB0001B68514A23F00203136000BF14E0BB7993
:101DC000002B02D0012B07D00DE04B4B1B684A4A79
:101DD00043F00203136006E0474B1B68464A23F0BA
:101DE0000203136000BF00BFCFE07B79072B00F236
:101DF000CA8001A252F823F0191E0000431E000001
:101E00006D1E0000971E0000C11E0000091F00008B
:101E1000331F00005D1F0000BB79002B02D0012B97
:101E200007D00DE0354B1B68344A43F002031360C2
:101E300006E0324B1B68314A23F00203136000BFF7
:101E4000A2E0BB79002B02D0012B07D00DE02B4B79
:101E50001B682A4A43F00203136006E0274B1B6805
:101E6000264A23F00203136000BF8DE0BB79002BEC
:101E700002D0012B07D00DE0214B1B68204A43F014
:101E80000203136006E01E4B1B681D4A23F0020389
:101E9000136000BF78E0BB79002B02D0012B07D084
:101EA0000DE0184B1B68174A43F00203136006E06D
:101EB000144B1B68134A23F00203136000BF63E056
:101EC000BB79002B02D0012B07D00DE00C4B1B6817
:101ED0000B4A43F00203136006E0094B1B68084AF3
:101EE00023F00203136000BF4EE000BF40800240B9
:101EF00080800240C0800240008102404090024049
:101F0000C090024080900240BB79002B02D0012B90
:101F100007D00DE0204B1B681F4A43F002031360FB
:101F200006E01D4B1B681C4A23F00203136000BF30
:101F30002AE0BB79002B02D0012B07D00DE0174B14
:101F40001B68164A43F00203136006E0134B1B683C
:101F5000124A23F00203136000BF15E0BB79002B87
:101F600002D0012B07D00DE00C4B1B680B4A43F04D
:101F70000203136006E0094B1B68084A23F00203C2
:101F8000136000BF00E000BF00E000BF00BF0C37DF
:101F9000BD4680BC704700BFC09002400091024027
:101FA00080B485B000AF3B600346FB710B46BB714C
:101FB00013467B717B79052B20D801A252F823F0C0
:101FC000D91F0000DF1F0000E51F0000EB1F00000D
:101FD000F11F0000F71F0000364BFB6010E0364B8E
:101FE000FB600DE0354BFB600AE0354BFB6007E022
:101FF000344BFB6004E0344BFB6001E0334BFB608F
:10200000FA683B68B2FBF3F3314A1360FB79002BAB
:1020100002D0012B24D047E0BB79032B1ED801A2AC
:1020200052F823F0352000003F2000004920000036
:1020300053200000274A264B1B6813600FE0264AF6
:10204000234B1B6813600AE0244A214B1B68136072
:1020500005E0234A1E4B1B68136000E000BF23E02D
:10206000BB79032B1ED801A252F823F07D2000007B
:1020700087200000912000009B200000194A144B8B
:102080001B6813600FE0184A114B1B6813600AE0CD
:10209000164A0F4B1B68136005E0154A0C4B1B6872
:1020A000136000E000BF00BF00BF1437BD4680BC16
:1020B000704700BF00127A0000093D0080841E00B6
:1020C00040420F0020A1070090D003000024F4003C
:1020D000FC0000205080024090800240D0800240EE
:1020E000108102405090024090900240D0900240F7
:1020F0001091024080B483B000AF3B600346FB7197
:102100000B46BB7113467B719C4B41F288321A60BF
:10211000FB79002B03D0012B00F0C7818BE3BB7947
:10212000072B00F2C08101A252F823F04D210000DC
:10213000BB2100001522000083220000DD220000E8
:102140004B230000DF2300004D2400007B79002B8F
:1021500002D0012B16D02FE03B68894AA2FB032353
:102160005B09864A1268874902FB03F30B60864BC2
:102170001B68854A43F018031360834B824A1B682F
:10218000136019E03B68C3F164037D4AA2FB03239B
:102190005B097A4A12687B4902FB03F30B607A4BB6
:1021A0001B68794A43F00C031360774B1B68764A2F
:1021B00043F48073136000BF76E17B79002B02D07B
:1021C000012B12D025E03B686D4AA2FB03235B097B
:1021D0006A4A12686D4902FB03F30B606C4B1B6883
:1021E0006B4A43F4C063136013E03B68C3F16403BC
:1021F000634AA2FB03235B09604A1268634902FB3E
:1022000003F30B60624B1B68614A43F4C0531360D5
:1022100000BF49E17B79002B02D0012B16D02FE0C3
:102220003B68574AA2FB03235B09544A1268594989
:1022300002FB03F30B60584B1B68574A43F018032B
:102240001360554B544A1B68136019E03B68C3F197
:1022500064034B4AA2FB03235B09484A12684D49B9
:1022600002FB03F30B604C4B1B684B4A43F00C031F
:102270001360494B1B68484A43F48073136000BFE6
:1022800012E17B79002B02D0012B12D025E03B68B4
:102290003B4AA2FB03235B09384A12683F4902FB11
:1022A00003F30B603E4B1B683D4A43F4C06313606D
:1022B00013E03B68C3F16403314AA2FB03235B09CB
:1022C0002E4A1268354902FB03F30B60344B1B683E
:1022D000334A43F4C053136000BFE5E07B79002B21
:1022E00002D0012B16D02FE03B68254AA2FB032326
:1022F0005B09224A12682B4902FB03F30B602A4B4D
:102300001B68294A43F018031360274B264A1B68B1
:10231000136019E03B68C3F16403194AA2FB03236D
:102320005B09164A12681F4902FB03F30B601E4B40
:102330001B681D4A43F00C0313601B4B1B681A4AB1
:1023400043F48073136000BFAEE07B79002B02D0B2
:10235000012B2FD042E03B68094AA2FB03235B0913
:10236000064A1268114902FB03F30B60104B1B680D
:102370000F4A43F4C063136030E000BFFC0000204C
:102380001F85EB5158800240608002405C80024013
:102390006480024098800240A08002409C800240FD
:1023A000A4800240D8800240E0800240DC800240ED
:1023B000E48002403B68C3F16403984AA2FB032314
:1023C0005B09974A1268974902FB03F30B60964B2F
:1023D0001B68954A43F4C053136000BF64E07B79E7
:1023E000002B02D0012B16D02FE03B688B4AA2FBBA
:1023F00003235B098A4A12688C4902FB03F30B60D2
:102400008B4B1B688A4A43F018031360884B884A39
:102410001B68136019E03B68C3F164037F4AA2FBA9
:1024200003235B097E4A1268804902FB03F30B60B9
:102430007F4B1B687E4A43F00C0313607C4B1B6888
:102440007B4A43F48073136000BF2DE07B79002B3F
:1024500002D0012B12D025E03B68704AA2FB032377
:102460005B096F4A1268734902FB03F30B60724BFE
:102470001B68714A43F4C063136013E03B68C3F107
:102480006403664AA2FB03235B09654A1268694933
:1024900002FB03F30B60684B1B68674A43F4C053AD
:1024A000136000BF00E000BFC5E1BB79072B00F25D
:1024B000C08101A252F823F0D92400004725000072
:1024C000A12500000F260000A32600001127000010
:1024D0006B270000D92700007B79002B02D0012B4D
:1024E00016D02FE03B684D4AA2FB03235B094C4A00
:1024F0001268524902FB03F30B60514B1B68504AB0
:1025000043F0180313604E4B4D4A1B68136019E0EB
:102510003B68C3F16403414AA2FB03235B09404AC1
:102520001268464902FB03F30B60454B1B68444AA3
:1025300043F00C031360424B1B68414A43F4807321
:10254000136000BF76E17B79002B02D0012B12D003
:1025500025E03B68314AA2FB03235B09304A12683D
:10256000384902FB03F30B60374B1B68364A43F4D0
:10257000C063136013E03B68C3F16403274AA2FB06
:1025800003235B09264A12682E4902FB03F30B6002
:102590002D4B1B682C4A43F4C053136000BF49E124
:1025A0007B79002B02D0012B16D02FE03B681B4A11
:1025B000A2FB03235B091A4A1268244902FB03F3B6
:1025C0000B60234B1B68224A43F018031360204B17
:1025D0001F4A1B68136019E03B68C3F164030F4A8C
:1025E000A2FB03235B090E4A1268184902FB03F39E
:1025F0000B60174B1B68164A43F00C031360144B17
:102600001B68134A43F48073136000BF12E17B79A7
:10261000002B1FD0012B2FD042E000BF1F85EB51B4
:10262000FC000020DC800240E4800240188102406F
:10263000208102401C8102402481024058900240C7
:10264000609002405C90024064900240989002408A
:10265000A09002403B687A4AA2FB03235B09794AB7
:102660001268794902FB03F30B60784B1B68774AC9
:1026700043F4C063136013E03B68C3F16403704A22
:10268000A2FB03235B096F4A12686F4902FB03F345
:102690000B606E4B1B686D4A43F4C053136000BF60
:1026A000C8E07B79002B02D0012B16D02FE03B68CD
:1026B000634AA2FB03235B09624A1268644902FB76
:1026C00003F30B60634B1B68624A43F0180313600B
:1026D000604B604A1B68136019E03B68C3F16403F8
:1026E000574AA2FB03235B09564A1268584902FB6A
:1026F00003F30B60574B1B68564A43F00C031360FF
:10270000544B1B68534A43F48073136000BF91E03D
:102710007B79002B02D0012B12D025E03B68484A80
:10272000A2FB03235B09474A12684B4902FB03F3F0
:102730000B604A4B1B68494A43F4C063136013E0C3
:102740003B68C3F164033E4AA2FB03235B093D4A95
:102750001268414902FB03F30B60404B1B683F4A80
:1027600043F4C053136000BF64E07B79002B02D0B8
:10277000012B16D02FE03B68314AA2FB03235B09F3
:10278000304A1268364902FB03F30B60354B1B6875
:10279000344A43F00C031360324B324A1B68136017
:1027A00019E03B68C3F16403254AA2FB03235B09DC
:1027B000244A12682A4902FB03F30B60294B1B6869
:1027C000284A43F00C031360264B1B68254A43F448
:1027D0008073136000BF2DE07B79002B02D0012BAA
:1027E00012D025E03B68164AA2FB03235B09154A79
:1027F00012681D4902FB03F30B601C4B1B681B4A4C
:1028000043F4C063136013E03B68C3F164030C4AF4
:10281000A2FB03235B090B4A1268134902FB03F373
:102820000B60124B1B68114A43F4C053136000BF86
:1028300000E000BF00BF00BF0C37BD4680BC704742
:102840001F85EB51FC0000209C900240A4900240A8
:10285000D8900240E0900240DC900240E4900240B8
:1028600018910240209102401C91024024910240A4
:1028700080B483B000AF0346FB710B46BB711346B7
:102880007B71FB79002B02D0012B55D0A8E0BB79DE
:10289000032B4FD801A252F823F000BFAD2800004F
:1028A000CF280000F1280000132900004F4B1B68BF
:1028B0004E4A43F0010313604D4B1B687A790121A6
:1028C00001FA02F211464A4A0B43136033E0494BC6
:1028D0001B68484A43F001031360454B1B687A7933
:1028E000012101FA02F21146414A0B43136022E032
:1028F000414B1B68404A43F0010313603C4B1B688B
:102900007A79012101FA02F21146394A0B43136028
:1029100011E03A4B1B68394A43F001031360344B12
:102920001B687A79012101FA02F21146304A0B4301
:10293000136000E000BF53E0BB79032B4ED801A227
:1029400052F823F05529000077290000992900004A
:10295000BB2900002A4B1B68294A43F0010313607E
:10296000284B1B687A79012101FA02F21146254AA7
:102970000B43136033E0244B1B68234A43F00103ED
:102980001360204B1B687A79012101FA02F211468B
:102990001C4A0B43136022E01C4B1B681B4A43F08C
:1029A00001031360174B1B687A79012101FA02F2C7
:1029B0001146144A0B43136011E0154B1B68144A6F
:1029C00043F0010313600F4B1B687A79012101FA70
:1029D00002F211460B4A0B43136000E000BF00BF38
:1029E00000BF0C37BD4680BC704700BF408002402E
:1029F0000880024080800240C08002400081024086
:102A0000409002400890024080900240C0900240F6
:102A10000091024080B584B000AF1A4A1A4BD31A15
:102A20003B60194BFB60194BBB6000237B600023AC
:102A30007B600AE0BA68531CBB60FB68591CF960F4
:102A400012781A707B6801337B607A683B689A421F
:102A5000F0D30F4A0F4BD31A3B600E4BFB600023A1
:102A60007B6007E0FB685A1CFA6000221A707B68E2
:102A700001337B607A683B689A42F3D3FEF74AFAE7
:102A8000FEE700BF0000002000000020042B000033
:102A9000000100200000002080B400AFFEE780B5F8
:102AA00000AFFFF7B7FF00BF80BD00BF80B400AF2D
:102AB00062B600BFBD4680BC704780B500AF084B12
:102AC00000221A60074B43F67F621A60044B07220C
:102AD0001A60054B00221A60FFF7E8FF00BF80BDB7
:102AE00010E000E014E000E018E000E080B500AF86
:102AF00000F002F800BF80BD80B500AFFEF764FBB8
:042B000000BF80BDD5
:00000001FF
